{
	"contracts/Voting.sol": {
		"Voting": {
			"abi": [
				{
					"inputs": [
						{
							"internalType": "string[]",
							"name": "candidateNames",
							"type": "string[]"
						}
					],
					"stateMutability": "nonpayable",
					"type": "constructor"
				},
				{
					"inputs": [
						{
							"internalType": "uint256",
							"name": "",
							"type": "uint256"
						}
					],
					"name": "candidateList",
					"outputs": [
						{
							"internalType": "string",
							"name": "",
							"type": "string"
						}
					],
					"stateMutability": "view",
					"type": "function"
				},
				{
					"inputs": [
						{
							"internalType": "string",
							"name": "candidate",
							"type": "string"
						}
					],
					"name": "totalVotesFor",
					"outputs": [
						{
							"internalType": "uint256",
							"name": "",
							"type": "uint256"
						}
					],
					"stateMutability": "view",
					"type": "function"
				},
				{
					"inputs": [
						{
							"internalType": "string",
							"name": "candidate",
							"type": "string"
						}
					],
					"name": "validCandidate",
					"outputs": [
						{
							"internalType": "bool",
							"name": "",
							"type": "bool"
						}
					],
					"stateMutability": "view",
					"type": "function"
				},
				{
					"inputs": [
						{
							"internalType": "string",
							"name": "candidate",
							"type": "string"
						}
					],
					"name": "voteForCandidate",
					"outputs": [],
					"stateMutability": "nonpayable",
					"type": "function"
				},
				{
					"inputs": [
						{
							"internalType": "string",
							"name": "",
							"type": "string"
						}
					],
					"name": "votesReceived",
					"outputs": [
						{
							"internalType": "uint256",
							"name": "",
							"type": "uint256"
						}
					],
					"stateMutability": "view",
					"type": "function"
				}
			],
			"devdoc": {
				"kind": "dev",
				"methods": {},
				"version": 1
			},
			"evm": {
				"assembly": "    /* \"contracts/Voting.sol\":35:953  contract Voting {\r... */\n  mstore(0x40, 0x80)\n    /* \"contracts/Voting.sol\":156:250  constructor (string[] memory candidateNames) {\r... */\n  callvalue\n  dup1\n  iszero\n  tag_1\n  jumpi\n  0x00\n  dup1\n  revert\ntag_1:\n  pop\n  mload(0x40)\n  sub(codesize, bytecodeSize)\n  dup1\n  bytecodeSize\n  dup4\n  codecopy\n  dup2\n  dup2\n  add\n  0x40\n  mstore\n  dup2\n  add\n  swap1\n  tag_2\n  swap2\n  swap1\n  tag_3\n  jump\t// in\ntag_2:\n    /* \"contracts/Voting.sol\":228:242  candidateNames */\n  dup1\n    /* \"contracts/Voting.sol\":212:225  candidateList */\n  0x01\n    /* \"contracts/Voting.sol\":212:242  candidateList = candidateNames */\n  swap1\n  dup1\n  mload\n  swap1\n  0x20\n  add\n  swap1\n  tag_6\n  swap3\n  swap2\n  swap1\n  tag_7\n  jump\t// in\ntag_6:\n  pop\n    /* \"contracts/Voting.sol\":156:250  constructor (string[] memory candidateNames) {\r... */\n  pop\n    /* \"contracts/Voting.sol\":35:953  contract Voting {\r... */\n  jump(tag_8)\ntag_7:\n  dup3\n  dup1\n  sload\n  dup3\n  dup3\n  sstore\n  swap1\n  0x00\n  mstore\n  keccak256(0x00, 0x20)\n  swap1\n  dup2\n  add\n  swap3\n  dup3\n  iszero\n  tag_9\n  jumpi\n  swap2\n  0x20\n  mul\n  dup3\n  add\ntag_10:\n  dup3\n  dup2\n  gt\n  iszero\n  tag_11\n  jumpi\n  dup3\n  mload\n  dup3\n  swap1\n  dup1\n  mload\n  swap1\n  0x20\n  add\n  swap1\n  tag_12\n  swap3\n  swap2\n  swap1\n  tag_13\n  jump\t// in\ntag_12:\n  pop\n  swap2\n  0x20\n  add\n  swap2\n  swap1\n  0x01\n  add\n  swap1\n  jump(tag_10)\ntag_11:\ntag_9:\n  pop\n  swap1\n  pop\n  tag_14\n  swap2\n  swap1\n  tag_15\n  jump\t// in\ntag_14:\n  pop\n  swap1\n  jump\t// out\ntag_13:\n  dup3\n  dup1\n  sload\n  tag_16\n  swap1\n  tag_17\n  jump\t// in\ntag_16:\n  swap1\n  0x00\n  mstore\n  keccak256(0x00, 0x20)\n  swap1\n  0x1f\n  add\n  0x20\n  swap1\n  div\n  dup2\n  add\n  swap3\n  dup3\n  tag_19\n  jumpi\n  0x00\n  dup6\n  sstore\n  jump(tag_18)\ntag_19:\n  dup3\n  0x1f\n  lt\n  tag_20\n  jumpi\n  dup1\n  mload\n  not(0xff)\n  and\n  dup4\n  dup1\n  add\n  or\n  dup6\n  sstore\n  jump(tag_18)\ntag_20:\n  dup3\n  dup1\n  add\n  0x01\n  add\n  dup6\n  sstore\n  dup3\n  iszero\n  tag_18\n  jumpi\n  swap2\n  dup3\n  add\ntag_21:\n  dup3\n  dup2\n  gt\n  iszero\n  tag_22\n  jumpi\n  dup3\n  mload\n  dup3\n  sstore\n  swap2\n  0x20\n  add\n  swap2\n  swap1\n  0x01\n  add\n  swap1\n  jump(tag_21)\ntag_22:\ntag_18:\n  pop\n  swap1\n  pop\n  tag_23\n  swap2\n  swap1\n  tag_24\n  jump\t// in\ntag_23:\n  pop\n  swap1\n  jump\t// out\ntag_15:\ntag_25:\n  dup1\n  dup3\n  gt\n  iszero\n  tag_26\n  jumpi\n  0x00\n  dup2\n  dup2\n  tag_27\n  swap2\n  swap1\n  tag_28\n  jump\t// in\ntag_27:\n  pop\n  0x01\n  add\n  jump(tag_25)\ntag_26:\n  pop\n  swap1\n  jump\t// out\ntag_24:\ntag_29:\n  dup1\n  dup3\n  gt\n  iszero\n  tag_30\n  jumpi\n  0x00\n  dup2\n  0x00\n  swap1\n  sstore\n  pop\n  0x01\n  add\n  jump(tag_29)\ntag_30:\n  pop\n  swap1\n  jump\t// out\ntag_28:\n  pop\n  dup1\n  sload\n  tag_31\n  swap1\n  tag_17\n  jump\t// in\ntag_31:\n  0x00\n  dup3\n  sstore\n  dup1\n  0x1f\n  lt\n  tag_33\n  jumpi\n  pop\n  jump(tag_32)\ntag_33:\n  0x1f\n  add\n  0x20\n  swap1\n  div\n  swap1\n  0x00\n  mstore\n  keccak256(0x00, 0x20)\n  swap1\n  dup2\n  add\n  swap1\n  tag_34\n  swap2\n  swap1\n  tag_24\n  jump\t// in\ntag_34:\ntag_32:\n  pop\n  jump\t// out\n    /* \"#utility.yul\":23:995   */\ntag_36:\n    /* \"#utility.yul\":140:145   */\n  0x00\n    /* \"#utility.yul\":165:256   */\n  tag_38\n    /* \"#utility.yul\":181:255   */\n  tag_39\n    /* \"#utility.yul\":248:254   */\n  dup5\n    /* \"#utility.yul\":181:255   */\n  tag_40\n  jump\t// in\ntag_39:\n    /* \"#utility.yul\":165:256   */\n  tag_41\n  jump\t// in\ntag_38:\n    /* \"#utility.yul\":156:256   */\n  swap1\n  pop\n    /* \"#utility.yul\":276:281   */\n  dup1\n    /* \"#utility.yul\":305:311   */\n  dup4\n    /* \"#utility.yul\":298:303   */\n  dup3\n    /* \"#utility.yul\":291:312   */\n  mstore\n    /* \"#utility.yul\":339:343   */\n  0x20\n    /* \"#utility.yul\":332:337   */\n  dup3\n    /* \"#utility.yul\":328:344   */\n  add\n    /* \"#utility.yul\":321:344   */\n  swap1\n  pop\n    /* \"#utility.yul\":365:371   */\n  dup3\n    /* \"#utility.yul\":415:418   */\n  dup6\n    /* \"#utility.yul\":407:411   */\n  0x20\n    /* \"#utility.yul\":399:405   */\n  dup7\n    /* \"#utility.yul\":395:412   */\n  mul\n    /* \"#utility.yul\":390:393   */\n  dup3\n    /* \"#utility.yul\":386:413   */\n  add\n    /* \"#utility.yul\":383:419   */\n  gt\n    /* \"#utility.yul\":380:523   */\n  iszero\n  tag_42\n  jumpi\n    /* \"#utility.yul\":434:513   */\n  tag_43\n  tag_44\n  jump\t// in\ntag_43:\n    /* \"#utility.yul\":380:523   */\ntag_42:\n    /* \"#utility.yul\":547:548   */\n  0x00\n    /* \"#utility.yul\":532:989   */\ntag_45:\n    /* \"#utility.yul\":557:563   */\n  dup6\n    /* \"#utility.yul\":554:555   */\n  dup2\n    /* \"#utility.yul\":551:564   */\n  lt\n    /* \"#utility.yul\":532:989   */\n  iszero\n  tag_47\n  jumpi\n    /* \"#utility.yul\":632:635   */\n  dup2\n    /* \"#utility.yul\":626:636   */\n  mload\n    /* \"#utility.yul\":668:686   */\n  0xffffffffffffffff\n    /* \"#utility.yul\":655:666   */\n  dup2\n    /* \"#utility.yul\":652:687   */\n  gt\n    /* \"#utility.yul\":649:771   */\n  iszero\n  tag_48\n  jumpi\n    /* \"#utility.yul\":690:769   */\n  tag_49\n  tag_50\n  jump\t// in\ntag_49:\n    /* \"#utility.yul\":649:771   */\ntag_48:\n    /* \"#utility.yul\":814:825   */\n  dup1\n    /* \"#utility.yul\":806:812   */\n  dup7\n    /* \"#utility.yul\":802:826   */\n  add\n    /* \"#utility.yul\":852:910   */\n  tag_51\n    /* \"#utility.yul\":906:909   */\n  dup10\n    /* \"#utility.yul\":894:904   */\n  dup3\n    /* \"#utility.yul\":852:910   */\n  tag_52\n  jump\t// in\ntag_51:\n    /* \"#utility.yul\":847:850   */\n  dup6\n    /* \"#utility.yul\":840:911   */\n  mstore\n    /* \"#utility.yul\":940:944   */\n  0x20\n    /* \"#utility.yul\":935:938   */\n  dup6\n    /* \"#utility.yul\":931:945   */\n  add\n    /* \"#utility.yul\":924:945   */\n  swap5\n  pop\n    /* \"#utility.yul\":974:978   */\n  0x20\n    /* \"#utility.yul\":969:972   */\n  dup5\n    /* \"#utility.yul\":965:979   */\n  add\n    /* \"#utility.yul\":958:979   */\n  swap4\n  pop\n    /* \"#utility.yul\":592:989   */\n  pop\n  pop\n    /* \"#utility.yul\":579:580   */\n  0x01\n    /* \"#utility.yul\":576:577   */\n  dup2\n    /* \"#utility.yul\":572:581   */\n  add\n    /* \"#utility.yul\":567:581   */\n  swap1\n  pop\n    /* \"#utility.yul\":532:989   */\n  jump(tag_45)\ntag_47:\n    /* \"#utility.yul\":536:550   */\n  pop\n    /* \"#utility.yul\":146:995   */\n  pop\n  pop\n    /* \"#utility.yul\":23:995   */\n  swap4\n  swap3\n  pop\n  pop\n  pop\n  jump\t// out\n    /* \"#utility.yul\":1001:1422   */\ntag_53:\n    /* \"#utility.yul\":1090:1095   */\n  0x00\n    /* \"#utility.yul\":1115:1181   */\n  tag_55\n    /* \"#utility.yul\":1131:1180   */\n  tag_56\n    /* \"#utility.yul\":1173:1179   */\n  dup5\n    /* \"#utility.yul\":1131:1180   */\n  tag_57\n  jump\t// in\ntag_56:\n    /* \"#utility.yul\":1115:1181   */\n  tag_41\n  jump\t// in\ntag_55:\n    /* \"#utility.yul\":1106:1181   */\n  swap1\n  pop\n    /* \"#utility.yul\":1204:1210   */\n  dup3\n    /* \"#utility.yul\":1197:1202   */\n  dup2\n    /* \"#utility.yul\":1190:1211   */\n  mstore\n    /* \"#utility.yul\":1242:1246   */\n  0x20\n    /* \"#utility.yul\":1235:1240   */\n  dup2\n    /* \"#utility.yul\":1231:1247   */\n  add\n    /* \"#utility.yul\":1280:1283   */\n  dup5\n    /* \"#utility.yul\":1271:1277   */\n  dup5\n    /* \"#utility.yul\":1266:1269   */\n  dup5\n    /* \"#utility.yul\":1262:1278   */\n  add\n    /* \"#utility.yul\":1259:1284   */\n  gt\n    /* \"#utility.yul\":1256:1368   */\n  iszero\n  tag_58\n  jumpi\n    /* \"#utility.yul\":1287:1366   */\n  tag_59\n  tag_60\n  jump\t// in\ntag_59:\n    /* \"#utility.yul\":1256:1368   */\ntag_58:\n    /* \"#utility.yul\":1377:1416   */\n  tag_61\n    /* \"#utility.yul\":1409:1415   */\n  dup5\n    /* \"#utility.yul\":1404:1407   */\n  dup3\n    /* \"#utility.yul\":1399:1402   */\n  dup6\n    /* \"#utility.yul\":1377:1416   */\n  tag_62\n  jump\t// in\ntag_61:\n    /* \"#utility.yul\":1096:1422   */\n  pop\n    /* \"#utility.yul\":1001:1422   */\n  swap4\n  swap3\n  pop\n  pop\n  pop\n  jump\t// out\n    /* \"#utility.yul\":1444:1849   */\ntag_63:\n    /* \"#utility.yul\":1536:1541   */\n  0x00\n    /* \"#utility.yul\":1585:1588   */\n  dup3\n    /* \"#utility.yul\":1578:1582   */\n  0x1f\n    /* \"#utility.yul\":1570:1576   */\n  dup4\n    /* \"#utility.yul\":1566:1583   */\n  add\n    /* \"#utility.yul\":1562:1589   */\n  slt\n    /* \"#utility.yul\":1552:1674   */\n  tag_65\n  jumpi\n    /* \"#utility.yul\":1593:1672   */\n  tag_66\n  tag_50\n  jump\t// in\ntag_66:\n    /* \"#utility.yul\":1552:1674   */\ntag_65:\n    /* \"#utility.yul\":1703:1709   */\n  dup2\n    /* \"#utility.yul\":1697:1710   */\n  mload\n    /* \"#utility.yul\":1728:1843   */\n  tag_67\n    /* \"#utility.yul\":1839:1842   */\n  dup5\n    /* \"#utility.yul\":1831:1837   */\n  dup3\n    /* \"#utility.yul\":1824:1828   */\n  0x20\n    /* \"#utility.yul\":1816:1822   */\n  dup7\n    /* \"#utility.yul\":1812:1829   */\n  add\n    /* \"#utility.yul\":1728:1843   */\n  tag_36\n  jump\t// in\ntag_67:\n    /* \"#utility.yul\":1719:1843   */\n  swap2\n  pop\n    /* \"#utility.yul\":1542:1849   */\n  pop\n    /* \"#utility.yul\":1444:1849   */\n  swap3\n  swap2\n  pop\n  pop\n  jump\t// out\n    /* \"#utility.yul\":1869:2224   */\ntag_52:\n    /* \"#utility.yul\":1936:1941   */\n  0x00\n    /* \"#utility.yul\":1985:1988   */\n  dup3\n    /* \"#utility.yul\":1978:1982   */\n  0x1f\n    /* \"#utility.yul\":1970:1976   */\n  dup4\n    /* \"#utility.yul\":1966:1983   */\n  add\n    /* \"#utility.yul\":1962:1989   */\n  slt\n    /* \"#utility.yul\":1952:2074   */\n  tag_69\n  jumpi\n    /* \"#utility.yul\":1993:2072   */\n  tag_70\n  tag_50\n  jump\t// in\ntag_70:\n    /* \"#utility.yul\":1952:2074   */\ntag_69:\n    /* \"#utility.yul\":2103:2109   */\n  dup2\n    /* \"#utility.yul\":2097:2110   */\n  mload\n    /* \"#utility.yul\":2128:2218   */\n  tag_71\n    /* \"#utility.yul\":2214:2217   */\n  dup5\n    /* \"#utility.yul\":2206:2212   */\n  dup3\n    /* \"#utility.yul\":2199:2203   */\n  0x20\n    /* \"#utility.yul\":2191:2197   */\n  dup7\n    /* \"#utility.yul\":2187:2204   */\n  add\n    /* \"#utility.yul\":2128:2218   */\n  tag_53\n  jump\t// in\ntag_71:\n    /* \"#utility.yul\":2119:2218   */\n  swap2\n  pop\n    /* \"#utility.yul\":1942:2224   */\n  pop\n    /* \"#utility.yul\":1869:2224   */\n  swap3\n  swap2\n  pop\n  pop\n  jump\t// out\n    /* \"#utility.yul\":2230:2804   */\ntag_3:\n    /* \"#utility.yul\":2335:2341   */\n  0x00\n    /* \"#utility.yul\":2384:2386   */\n  0x20\n    /* \"#utility.yul\":2372:2381   */\n  dup3\n    /* \"#utility.yul\":2363:2370   */\n  dup5\n    /* \"#utility.yul\":2359:2382   */\n  sub\n    /* \"#utility.yul\":2355:2387   */\n  slt\n    /* \"#utility.yul\":2352:2471   */\n  iszero\n  tag_73\n  jumpi\n    /* \"#utility.yul\":2390:2469   */\n  tag_74\n  tag_75\n  jump\t// in\ntag_74:\n    /* \"#utility.yul\":2352:2471   */\ntag_73:\n    /* \"#utility.yul\":2531:2532   */\n  0x00\n    /* \"#utility.yul\":2520:2529   */\n  dup3\n    /* \"#utility.yul\":2516:2533   */\n  add\n    /* \"#utility.yul\":2510:2534   */\n  mload\n    /* \"#utility.yul\":2561:2579   */\n  0xffffffffffffffff\n    /* \"#utility.yul\":2553:2559   */\n  dup2\n    /* \"#utility.yul\":2550:2580   */\n  gt\n    /* \"#utility.yul\":2547:2664   */\n  iszero\n  tag_76\n  jumpi\n    /* \"#utility.yul\":2583:2662   */\n  tag_77\n  tag_78\n  jump\t// in\ntag_77:\n    /* \"#utility.yul\":2547:2664   */\ntag_76:\n    /* \"#utility.yul\":2688:2787   */\n  tag_79\n    /* \"#utility.yul\":2779:2786   */\n  dup5\n    /* \"#utility.yul\":2770:2776   */\n  dup3\n    /* \"#utility.yul\":2759:2768   */\n  dup6\n    /* \"#utility.yul\":2755:2777   */\n  add\n    /* \"#utility.yul\":2688:2787   */\n  tag_63\n  jump\t// in\ntag_79:\n    /* \"#utility.yul\":2678:2787   */\n  swap2\n  pop\n    /* \"#utility.yul\":2481:2797   */\n  pop\n    /* \"#utility.yul\":2230:2804   */\n  swap3\n  swap2\n  pop\n  pop\n  jump\t// out\n    /* \"#utility.yul\":2810:2939   */\ntag_41:\n    /* \"#utility.yul\":2844:2850   */\n  0x00\n    /* \"#utility.yul\":2871:2891   */\n  tag_81\n  tag_82\n  jump\t// in\ntag_81:\n    /* \"#utility.yul\":2861:2891   */\n  swap1\n  pop\n    /* \"#utility.yul\":2900:2933   */\n  tag_83\n    /* \"#utility.yul\":2928:2932   */\n  dup3\n    /* \"#utility.yul\":2920:2926   */\n  dup3\n    /* \"#utility.yul\":2900:2933   */\n  tag_84\n  jump\t// in\ntag_83:\n    /* \"#utility.yul\":2810:2939   */\n  swap2\n  swap1\n  pop\n  jump\t// out\n    /* \"#utility.yul\":2945:3020   */\ntag_82:\n    /* \"#utility.yul\":2978:2984   */\n  0x00\n    /* \"#utility.yul\":3011:3013   */\n  0x40\n    /* \"#utility.yul\":3005:3014   */\n  mload\n    /* \"#utility.yul\":2995:3014   */\n  swap1\n  pop\n    /* \"#utility.yul\":2945:3020   */\n  swap1\n  jump\t// out\n    /* \"#utility.yul\":3026:3347   */\ntag_40:\n    /* \"#utility.yul\":3113:3117   */\n  0x00\n    /* \"#utility.yul\":3203:3221   */\n  0xffffffffffffffff\n    /* \"#utility.yul\":3195:3201   */\n  dup3\n    /* \"#utility.yul\":3192:3222   */\n  gt\n    /* \"#utility.yul\":3189:3245   */\n  iszero\n  tag_87\n  jumpi\n    /* \"#utility.yul\":3225:3243   */\n  tag_88\n  tag_89\n  jump\t// in\ntag_88:\n    /* \"#utility.yul\":3189:3245   */\ntag_87:\n    /* \"#utility.yul\":3275:3279   */\n  0x20\n    /* \"#utility.yul\":3267:3273   */\n  dup3\n    /* \"#utility.yul\":3263:3280   */\n  mul\n    /* \"#utility.yul\":3255:3280   */\n  swap1\n  pop\n    /* \"#utility.yul\":3335:3339   */\n  0x20\n    /* \"#utility.yul\":3329:3333   */\n  dup2\n    /* \"#utility.yul\":3325:3340   */\n  add\n    /* \"#utility.yul\":3317:3340   */\n  swap1\n  pop\n    /* \"#utility.yul\":3026:3347   */\n  swap2\n  swap1\n  pop\n  jump\t// out\n    /* \"#utility.yul\":3353:3661   */\ntag_57:\n    /* \"#utility.yul\":3415:3419   */\n  0x00\n    /* \"#utility.yul\":3505:3523   */\n  0xffffffffffffffff\n    /* \"#utility.yul\":3497:3503   */\n  dup3\n    /* \"#utility.yul\":3494:3524   */\n  gt\n    /* \"#utility.yul\":3491:3547   */\n  iszero\n  tag_91\n  jumpi\n    /* \"#utility.yul\":3527:3545   */\n  tag_92\n  tag_89\n  jump\t// in\ntag_92:\n    /* \"#utility.yul\":3491:3547   */\ntag_91:\n    /* \"#utility.yul\":3565:3594   */\n  tag_93\n    /* \"#utility.yul\":3587:3593   */\n  dup3\n    /* \"#utility.yul\":3565:3594   */\n  tag_94\n  jump\t// in\ntag_93:\n    /* \"#utility.yul\":3557:3594   */\n  swap1\n  pop\n    /* \"#utility.yul\":3649:3653   */\n  0x20\n    /* \"#utility.yul\":3643:3647   */\n  dup2\n    /* \"#utility.yul\":3639:3654   */\n  add\n    /* \"#utility.yul\":3631:3654   */\n  swap1\n  pop\n    /* \"#utility.yul\":3353:3661   */\n  swap2\n  swap1\n  pop\n  jump\t// out\n    /* \"#utility.yul\":3667:3974   */\ntag_62:\n    /* \"#utility.yul\":3735:3736   */\n  0x00\n    /* \"#utility.yul\":3745:3858   */\ntag_96:\n    /* \"#utility.yul\":3759:3765   */\n  dup4\n    /* \"#utility.yul\":3756:3757   */\n  dup2\n    /* \"#utility.yul\":3753:3766   */\n  lt\n    /* \"#utility.yul\":3745:3858   */\n  iszero\n  tag_98\n  jumpi\n    /* \"#utility.yul\":3844:3845   */\n  dup1\n    /* \"#utility.yul\":3839:3842   */\n  dup3\n    /* \"#utility.yul\":3835:3846   */\n  add\n    /* \"#utility.yul\":3829:3847   */\n  mload\n    /* \"#utility.yul\":3825:3826   */\n  dup2\n    /* \"#utility.yul\":3820:3823   */\n  dup5\n    /* \"#utility.yul\":3816:3827   */\n  add\n    /* \"#utility.yul\":3809:3848   */\n  mstore\n    /* \"#utility.yul\":3781:3783   */\n  0x20\n    /* \"#utility.yul\":3778:3779   */\n  dup2\n    /* \"#utility.yul\":3774:3784   */\n  add\n    /* \"#utility.yul\":3769:3784   */\n  swap1\n  pop\n    /* \"#utility.yul\":3745:3858   */\n  jump(tag_96)\ntag_98:\n    /* \"#utility.yul\":3876:3882   */\n  dup4\n    /* \"#utility.yul\":3873:3874   */\n  dup2\n    /* \"#utility.yul\":3870:3883   */\n  gt\n    /* \"#utility.yul\":3867:3968   */\n  iszero\n  tag_99\n  jumpi\n    /* \"#utility.yul\":3956:3957   */\n  0x00\n    /* \"#utility.yul\":3947:3953   */\n  dup5\n    /* \"#utility.yul\":3942:3945   */\n  dup5\n    /* \"#utility.yul\":3938:3954   */\n  add\n    /* \"#utility.yul\":3931:3958   */\n  mstore\n    /* \"#utility.yul\":3867:3968   */\ntag_99:\n    /* \"#utility.yul\":3716:3974   */\n  pop\n    /* \"#utility.yul\":3667:3974   */\n  pop\n  pop\n  pop\n  jump\t// out\n    /* \"#utility.yul\":3980:4300   */\ntag_17:\n    /* \"#utility.yul\":4024:4030   */\n  0x00\n    /* \"#utility.yul\":4061:4062   */\n  0x02\n    /* \"#utility.yul\":4055:4059   */\n  dup3\n    /* \"#utility.yul\":4051:4063   */\n  div\n    /* \"#utility.yul\":4041:4063   */\n  swap1\n  pop\n    /* \"#utility.yul\":4108:4109   */\n  0x01\n    /* \"#utility.yul\":4102:4106   */\n  dup3\n    /* \"#utility.yul\":4098:4110   */\n  and\n    /* \"#utility.yul\":4129:4147   */\n  dup1\n    /* \"#utility.yul\":4119:4200   */\n  tag_101\n  jumpi\n    /* \"#utility.yul\":4185:4189   */\n  0x7f\n    /* \"#utility.yul\":4177:4183   */\n  dup3\n    /* \"#utility.yul\":4173:4190   */\n  and\n    /* \"#utility.yul\":4163:4190   */\n  swap2\n  pop\n    /* \"#utility.yul\":4119:4200   */\ntag_101:\n    /* \"#utility.yul\":4247:4249   */\n  0x20\n    /* \"#utility.yul\":4239:4245   */\n  dup3\n    /* \"#utility.yul\":4236:4250   */\n  lt\n    /* \"#utility.yul\":4216:4234   */\n  dup2\n    /* \"#utility.yul\":4213:4251   */\n  eq\n    /* \"#utility.yul\":4210:4294   */\n  iszero\n  tag_102\n  jumpi\n    /* \"#utility.yul\":4266:4284   */\n  tag_103\n  tag_104\n  jump\t// in\ntag_103:\n    /* \"#utility.yul\":4210:4294   */\ntag_102:\n    /* \"#utility.yul\":4031:4300   */\n  pop\n    /* \"#utility.yul\":3980:4300   */\n  swap2\n  swap1\n  pop\n  jump\t// out\n    /* \"#utility.yul\":4306:4587   */\ntag_84:\n    /* \"#utility.yul\":4389:4416   */\n  tag_106\n    /* \"#utility.yul\":4411:4415   */\n  dup3\n    /* \"#utility.yul\":4389:4416   */\n  tag_94\n  jump\t// in\ntag_106:\n    /* \"#utility.yul\":4381:4387   */\n  dup2\n    /* \"#utility.yul\":4377:4417   */\n  add\n    /* \"#utility.yul\":4519:4525   */\n  dup2\n    /* \"#utility.yul\":4507:4517   */\n  dup2\n    /* \"#utility.yul\":4504:4526   */\n  lt\n    /* \"#utility.yul\":4483:4501   */\n  0xffffffffffffffff\n    /* \"#utility.yul\":4471:4481   */\n  dup3\n    /* \"#utility.yul\":4468:4502   */\n  gt\n    /* \"#utility.yul\":4465:4527   */\n  or\n    /* \"#utility.yul\":4462:4550   */\n  iszero\n  tag_107\n  jumpi\n    /* \"#utility.yul\":4530:4548   */\n  tag_108\n  tag_89\n  jump\t// in\ntag_108:\n    /* \"#utility.yul\":4462:4550   */\ntag_107:\n    /* \"#utility.yul\":4570:4580   */\n  dup1\n    /* \"#utility.yul\":4566:4568   */\n  0x40\n    /* \"#utility.yul\":4559:4581   */\n  mstore\n    /* \"#utility.yul\":4349:4587   */\n  pop\n    /* \"#utility.yul\":4306:4587   */\n  pop\n  pop\n  jump\t// out\n    /* \"#utility.yul\":4593:4773   */\ntag_104:\n    /* \"#utility.yul\":4641:4718   */\n  0x4e487b7100000000000000000000000000000000000000000000000000000000\n    /* \"#utility.yul\":4638:4639   */\n  0x00\n    /* \"#utility.yul\":4631:4719   */\n  mstore\n    /* \"#utility.yul\":4738:4742   */\n  0x22\n    /* \"#utility.yul\":4735:4736   */\n  0x04\n    /* \"#utility.yul\":4728:4743   */\n  mstore\n    /* \"#utility.yul\":4762:4766   */\n  0x24\n    /* \"#utility.yul\":4759:4760   */\n  0x00\n    /* \"#utility.yul\":4752:4767   */\n  revert\n    /* \"#utility.yul\":4779:4959   */\ntag_89:\n    /* \"#utility.yul\":4827:4904   */\n  0x4e487b7100000000000000000000000000000000000000000000000000000000\n    /* \"#utility.yul\":4824:4825   */\n  0x00\n    /* \"#utility.yul\":4817:4905   */\n  mstore\n    /* \"#utility.yul\":4924:4928   */\n  0x41\n    /* \"#utility.yul\":4921:4922   */\n  0x04\n    /* \"#utility.yul\":4914:4929   */\n  mstore\n    /* \"#utility.yul\":4948:4952   */\n  0x24\n    /* \"#utility.yul\":4945:4946   */\n  0x00\n    /* \"#utility.yul\":4938:4953   */\n  revert\n    /* \"#utility.yul\":4965:5082   */\ntag_50:\n    /* \"#utility.yul\":5074:5075   */\n  0x00\n    /* \"#utility.yul\":5071:5072   */\n  dup1\n    /* \"#utility.yul\":5064:5076   */\n  revert\n    /* \"#utility.yul\":5088:5205   */\ntag_44:\n    /* \"#utility.yul\":5197:5198   */\n  0x00\n    /* \"#utility.yul\":5194:5195   */\n  dup1\n    /* \"#utility.yul\":5187:5199   */\n  revert\n    /* \"#utility.yul\":5211:5328   */\ntag_60:\n    /* \"#utility.yul\":5320:5321   */\n  0x00\n    /* \"#utility.yul\":5317:5318   */\n  dup1\n    /* \"#utility.yul\":5310:5322   */\n  revert\n    /* \"#utility.yul\":5334:5451   */\ntag_78:\n    /* \"#utility.yul\":5443:5444   */\n  0x00\n    /* \"#utility.yul\":5440:5441   */\n  dup1\n    /* \"#utility.yul\":5433:5445   */\n  revert\n    /* \"#utility.yul\":5457:5574   */\ntag_75:\n    /* \"#utility.yul\":5566:5567   */\n  0x00\n    /* \"#utility.yul\":5563:5564   */\n  dup1\n    /* \"#utility.yul\":5556:5568   */\n  revert\n    /* \"#utility.yul\":5580:5682   */\ntag_94:\n    /* \"#utility.yul\":5621:5627   */\n  0x00\n    /* \"#utility.yul\":5672:5674   */\n  0x1f\n    /* \"#utility.yul\":5668:5675   */\n  not\n    /* \"#utility.yul\":5663:5665   */\n  0x1f\n    /* \"#utility.yul\":5656:5661   */\n  dup4\n    /* \"#utility.yul\":5652:5666   */\n  add\n    /* \"#utility.yul\":5648:5676   */\n  and\n    /* \"#utility.yul\":5638:5676   */\n  swap1\n  pop\n    /* \"#utility.yul\":5580:5682   */\n  swap2\n  swap1\n  pop\n  jump\t// out\n    /* \"contracts/Voting.sol\":35:953  contract Voting {\r... */\ntag_8:\n  dataSize(sub_0)\n  dup1\n  dataOffset(sub_0)\n  0x00\n  codecopy\n  0x00\n  return\nstop\n\nsub_0: assembly {\n        /* \"contracts/Voting.sol\":35:953  contract Voting {\r... */\n      mstore(0x40, 0x80)\n      callvalue\n      dup1\n      iszero\n      tag_1\n      jumpi\n      0x00\n      dup1\n      revert\n    tag_1:\n      pop\n      jumpi(tag_2, lt(calldatasize, 0x04))\n      shr(0xe0, calldataload(0x00))\n      dup1\n      0x4a3bf377\n      eq\n      tag_3\n      jumpi\n      dup1\n      0x538c91b2\n      eq\n      tag_4\n      jumpi\n      dup1\n      0x8d4b44d9\n      eq\n      tag_5\n      jumpi\n      dup1\n      0xb13c744b\n      eq\n      tag_6\n      jumpi\n      dup1\n      0xe89927ef\n      eq\n      tag_7\n      jumpi\n    tag_2:\n      0x00\n      dup1\n      revert\n        /* \"contracts/Voting.sol\":258:436  function totalVotesFor(string memory candidate) view public returns (uint256){\r... */\n    tag_3:\n      tag_8\n      0x04\n      dup1\n      calldatasize\n      sub\n      dup2\n      add\n      swap1\n      tag_9\n      swap2\n      swap1\n      tag_10\n      jump\t// in\n    tag_9:\n      tag_11\n      jump\t// in\n    tag_8:\n      mload(0x40)\n      tag_12\n      swap2\n      swap1\n      tag_13\n      jump\t// in\n    tag_12:\n      mload(0x40)\n      dup1\n      swap2\n      sub\n      swap1\n      return\n        /* \"contracts/Voting.sol\":608:948  function validCandidate(string memory candidate) view public returns (bool) {\r... */\n    tag_4:\n      tag_14\n      0x04\n      dup1\n      calldatasize\n      sub\n      dup2\n      add\n      swap1\n      tag_15\n      swap2\n      swap1\n      tag_10\n      jump\t// in\n    tag_15:\n      tag_16\n      jump\t// in\n    tag_14:\n      mload(0x40)\n      tag_17\n      swap2\n      swap1\n      tag_18\n      jump\t// in\n    tag_17:\n      mload(0x40)\n      dup1\n      swap2\n      sub\n      swap1\n      return\n        /* \"contracts/Voting.sol\":60:109  mapping (string  => uint256) public votesReceived */\n    tag_5:\n      tag_19\n      0x04\n      dup1\n      calldatasize\n      sub\n      dup2\n      add\n      swap1\n      tag_20\n      swap2\n      swap1\n      tag_10\n      jump\t// in\n    tag_20:\n      tag_21\n      jump\t// in\n    tag_19:\n      mload(0x40)\n      tag_22\n      swap2\n      swap1\n      tag_13\n      jump\t// in\n    tag_22:\n      mload(0x40)\n      dup1\n      swap2\n      sub\n      swap1\n      return\n        /* \"contracts/Voting.sol\":118:147  string[] public candidateList */\n    tag_6:\n      tag_23\n      0x04\n      dup1\n      calldatasize\n      sub\n      dup2\n      add\n      swap1\n      tag_24\n      swap2\n      swap1\n      tag_25\n      jump\t// in\n    tag_24:\n      tag_26\n      jump\t// in\n    tag_23:\n      mload(0x40)\n      tag_27\n      swap2\n      swap1\n      tag_28\n      jump\t// in\n    tag_27:\n      mload(0x40)\n      dup1\n      swap2\n      sub\n      swap1\n      return\n        /* \"contracts/Voting.sol\":444:600  function voteForCandidate (string memory candidate) public {\r... */\n    tag_7:\n      tag_29\n      0x04\n      dup1\n      calldatasize\n      sub\n      dup2\n      add\n      swap1\n      tag_30\n      swap2\n      swap1\n      tag_10\n      jump\t// in\n    tag_30:\n      tag_31\n      jump\t// in\n    tag_29:\n      stop\n        /* \"contracts/Voting.sol\":258:436  function totalVotesFor(string memory candidate) view public returns (uint256){\r... */\n    tag_11:\n        /* \"contracts/Voting.sol\":327:334  uint256 */\n      0x00\n        /* \"contracts/Voting.sol\":356:381  validCandidate(candidate) */\n      tag_33\n        /* \"contracts/Voting.sol\":371:380  candidate */\n      dup3\n        /* \"contracts/Voting.sol\":356:370  validCandidate */\n      tag_16\n        /* \"contracts/Voting.sol\":356:381  validCandidate(candidate) */\n      jump\t// in\n    tag_33:\n        /* \"contracts/Voting.sol\":348:382  require(validCandidate(candidate)) */\n      tag_34\n      jumpi\n      0x00\n      dup1\n      revert\n    tag_34:\n        /* \"contracts/Voting.sol\":402:415  votesReceived */\n      0x00\n        /* \"contracts/Voting.sol\":416:425  candidate */\n      dup3\n        /* \"contracts/Voting.sol\":402:426  votesReceived[candidate] */\n      mload(0x40)\n      tag_35\n      swap2\n      swap1\n      tag_36\n      jump\t// in\n    tag_35:\n      swap1\n      dup2\n      mstore\n      0x20\n      add\n      mload(0x40)\n      dup1\n      swap2\n      sub\n      swap1\n      keccak256\n      sload\n        /* \"contracts/Voting.sol\":395:426  return votesReceived[candidate] */\n      swap1\n      pop\n        /* \"contracts/Voting.sol\":258:436  function totalVotesFor(string memory candidate) view public returns (uint256){\r... */\n      swap2\n      swap1\n      pop\n      jump\t// out\n        /* \"contracts/Voting.sol\":608:948  function validCandidate(string memory candidate) view public returns (bool) {\r... */\n    tag_16:\n        /* \"contracts/Voting.sol\":678:682  bool */\n      0x00\n        /* \"contracts/Voting.sol\":709:715  uint i */\n      dup1\n        /* \"contracts/Voting.sol\":718:719  0 */\n      0x00\n        /* \"contracts/Voting.sol\":709:719  uint i = 0 */\n      swap1\n      pop\n        /* \"contracts/Voting.sol\":705:914  for(uint i = 0; i < candidateList.length; i++){\r... */\n    tag_38:\n        /* \"contracts/Voting.sol\":725:738  candidateList */\n      0x01\n        /* \"contracts/Voting.sol\":725:745  candidateList.length */\n      dup1\n      sload\n      swap1\n      pop\n        /* \"contracts/Voting.sol\":721:722  i */\n      dup2\n        /* \"contracts/Voting.sol\":721:745  i < candidateList.length */\n      lt\n        /* \"contracts/Voting.sol\":705:914  for(uint i = 0; i < candidateList.length; i++){\r... */\n      iszero\n      tag_39\n      jumpi\n        /* \"contracts/Voting.sol\":845:854  candidate */\n      dup3\n        /* \"contracts/Voting.sol\":828:855  abi.encodePacked(candidate) */\n      add(0x20, mload(0x40))\n      tag_41\n      swap2\n      swap1\n      tag_36\n      jump\t// in\n    tag_41:\n      mload(0x40)\n      0x20\n      dup2\n      dup4\n      sub\n      sub\n      dup2\n      mstore\n      swap1\n      0x40\n      mstore\n        /* \"contracts/Voting.sol\":818:856  keccak256(abi.encodePacked(candidate)) */\n      dup1\n      mload\n      swap1\n      0x20\n      add\n      keccak256\n        /* \"contracts/Voting.sol\":796:809  candidateList */\n      0x01\n        /* \"contracts/Voting.sol\":810:811  i */\n      dup3\n        /* \"contracts/Voting.sol\":796:812  candidateList[i] */\n      dup2\n      sload\n      dup2\n      lt\n      tag_42\n      jumpi\n      tag_43\n      tag_44\n      jump\t// in\n    tag_43:\n    tag_42:\n      swap1\n      0x00\n      mstore\n      keccak256(0x00, 0x20)\n      add\n        /* \"contracts/Voting.sol\":779:813  abi.encodePacked(candidateList[i]) */\n      add(0x20, mload(0x40))\n      tag_46\n      swap2\n      swap1\n      tag_47\n      jump\t// in\n    tag_46:\n      mload(0x40)\n      0x20\n      dup2\n      dup4\n      sub\n      sub\n      dup2\n      mstore\n      swap1\n      0x40\n      mstore\n        /* \"contracts/Voting.sol\":769:814  keccak256(abi.encodePacked(candidateList[i])) */\n      dup1\n      mload\n      swap1\n      0x20\n      add\n      keccak256\n        /* \"contracts/Voting.sol\":769:856  keccak256(abi.encodePacked(candidateList[i])) == keccak256(abi.encodePacked(candidate)) */\n      eq\n        /* \"contracts/Voting.sol\":766:903  if(keccak256(abi.encodePacked(candidateList[i])) == keccak256(abi.encodePacked(candidate))){\r... */\n      iszero\n      tag_48\n      jumpi\n        /* \"contracts/Voting.sol\":883:887  true */\n      0x01\n        /* \"contracts/Voting.sol\":876:887  return true */\n      swap2\n      pop\n      pop\n      jump(tag_37)\n        /* \"contracts/Voting.sol\":766:903  if(keccak256(abi.encodePacked(candidateList[i])) == keccak256(abi.encodePacked(candidate))){\r... */\n    tag_48:\n        /* \"contracts/Voting.sol\":747:750  i++ */\n      dup1\n      dup1\n      tag_49\n      swap1\n      tag_50\n      jump\t// in\n    tag_49:\n      swap2\n      pop\n      pop\n        /* \"contracts/Voting.sol\":705:914  for(uint i = 0; i < candidateList.length; i++){\r... */\n      jump(tag_38)\n    tag_39:\n      pop\n        /* \"contracts/Voting.sol\":933:938  false */\n      0x00\n        /* \"contracts/Voting.sol\":926:938  return false */\n      swap1\n      pop\n        /* \"contracts/Voting.sol\":608:948  function validCandidate(string memory candidate) view public returns (bool) {\r... */\n    tag_37:\n      swap2\n      swap1\n      pop\n      jump\t// out\n        /* \"contracts/Voting.sol\":60:109  mapping (string  => uint256) public votesReceived */\n    tag_21:\n      0x00\n      dup2\n      dup1\n      mload\n      0x20\n      dup2\n      add\n      dup3\n      add\n      dup1\n      mload\n      dup5\n      dup3\n      mstore\n      0x20\n      dup4\n      add\n      0x20\n      dup6\n      add\n      keccak256\n      dup2\n      dup4\n      mstore\n      dup1\n      swap6\n      pop\n      pop\n      pop\n      pop\n      pop\n      pop\n      0x00\n      swap2\n      pop\n      swap1\n      pop\n      sload\n      dup2\n      jump\t// out\n        /* \"contracts/Voting.sol\":118:147  string[] public candidateList */\n    tag_26:\n      0x01\n      dup2\n      dup2\n      sload\n      dup2\n      lt\n      tag_51\n      jumpi\n      0x00\n      dup1\n      revert\n    tag_51:\n      swap1\n      0x00\n      mstore\n      keccak256(0x00, 0x20)\n      add\n      0x00\n      swap2\n      pop\n      swap1\n      pop\n      dup1\n      sload\n      tag_53\n      swap1\n      tag_54\n      jump\t// in\n    tag_53:\n      dup1\n      0x1f\n      add\n      0x20\n      dup1\n      swap2\n      div\n      mul\n      0x20\n      add\n      mload(0x40)\n      swap1\n      dup2\n      add\n      0x40\n      mstore\n      dup1\n      swap3\n      swap2\n      swap1\n      dup2\n      dup2\n      mstore\n      0x20\n      add\n      dup3\n      dup1\n      sload\n      tag_55\n      swap1\n      tag_54\n      jump\t// in\n    tag_55:\n      dup1\n      iszero\n      tag_56\n      jumpi\n      dup1\n      0x1f\n      lt\n      tag_57\n      jumpi\n      0x0100\n      dup1\n      dup4\n      sload\n      div\n      mul\n      dup4\n      mstore\n      swap2\n      0x20\n      add\n      swap2\n      jump(tag_56)\n    tag_57:\n      dup3\n      add\n      swap2\n      swap1\n      0x00\n      mstore\n      keccak256(0x00, 0x20)\n      swap1\n    tag_58:\n      dup2\n      sload\n      dup2\n      mstore\n      swap1\n      0x01\n      add\n      swap1\n      0x20\n      add\n      dup1\n      dup4\n      gt\n      tag_58\n      jumpi\n      dup3\n      swap1\n      sub\n      0x1f\n      and\n      dup3\n      add\n      swap2\n    tag_56:\n      pop\n      pop\n      pop\n      pop\n      pop\n      dup2\n      jump\t// out\n        /* \"contracts/Voting.sol\":444:600  function voteForCandidate (string memory candidate) public {\r... */\n    tag_31:\n        /* \"contracts/Voting.sol\":524:549  validCandidate(candidate) */\n      tag_60\n        /* \"contracts/Voting.sol\":539:548  candidate */\n      dup2\n        /* \"contracts/Voting.sol\":524:538  validCandidate */\n      tag_16\n        /* \"contracts/Voting.sol\":524:549  validCandidate(candidate) */\n      jump\t// in\n    tag_60:\n        /* \"contracts/Voting.sol\":516:550  require(validCandidate(candidate)) */\n      tag_61\n      jumpi\n      0x00\n      dup1\n      revert\n    tag_61:\n        /* \"contracts/Voting.sol\":589:590  1 */\n      0x01\n        /* \"contracts/Voting.sol\":561:574  votesReceived */\n      0x00\n        /* \"contracts/Voting.sol\":575:584  candidate */\n      dup3\n        /* \"contracts/Voting.sol\":561:585  votesReceived[candidate] */\n      mload(0x40)\n      tag_62\n      swap2\n      swap1\n      tag_36\n      jump\t// in\n    tag_62:\n      swap1\n      dup2\n      mstore\n      0x20\n      add\n      mload(0x40)\n      dup1\n      swap2\n      sub\n      swap1\n      keccak256\n      0x00\n        /* \"contracts/Voting.sol\":561:590  votesReceived[candidate] += 1 */\n      dup3\n      dup3\n      sload\n      tag_63\n      swap2\n      swap1\n      tag_64\n      jump\t// in\n    tag_63:\n      swap3\n      pop\n      pop\n      dup2\n      swap1\n      sstore\n      pop\n        /* \"contracts/Voting.sol\":444:600  function voteForCandidate (string memory candidate) public {\r... */\n      pop\n      jump\t// out\n        /* \"#utility.yul\":7:419   */\n    tag_66:\n        /* \"#utility.yul\":85:90   */\n      0x00\n        /* \"#utility.yul\":110:176   */\n      tag_68\n        /* \"#utility.yul\":126:175   */\n      tag_69\n        /* \"#utility.yul\":168:174   */\n      dup5\n        /* \"#utility.yul\":126:175   */\n      tag_70\n      jump\t// in\n    tag_69:\n        /* \"#utility.yul\":110:176   */\n      tag_71\n      jump\t// in\n    tag_68:\n        /* \"#utility.yul\":101:176   */\n      swap1\n      pop\n        /* \"#utility.yul\":199:205   */\n      dup3\n        /* \"#utility.yul\":192:197   */\n      dup2\n        /* \"#utility.yul\":185:206   */\n      mstore\n        /* \"#utility.yul\":237:241   */\n      0x20\n        /* \"#utility.yul\":230:235   */\n      dup2\n        /* \"#utility.yul\":226:242   */\n      add\n        /* \"#utility.yul\":275:278   */\n      dup5\n        /* \"#utility.yul\":266:272   */\n      dup5\n        /* \"#utility.yul\":261:264   */\n      dup5\n        /* \"#utility.yul\":257:273   */\n      add\n        /* \"#utility.yul\":254:279   */\n      gt\n        /* \"#utility.yul\":251:363   */\n      iszero\n      tag_72\n      jumpi\n        /* \"#utility.yul\":282:361   */\n      tag_73\n      tag_74\n      jump\t// in\n    tag_73:\n        /* \"#utility.yul\":251:363   */\n    tag_72:\n        /* \"#utility.yul\":372:413   */\n      tag_75\n        /* \"#utility.yul\":406:412   */\n      dup5\n        /* \"#utility.yul\":401:404   */\n      dup3\n        /* \"#utility.yul\":396:399   */\n      dup6\n        /* \"#utility.yul\":372:413   */\n      tag_76\n      jump\t// in\n    tag_75:\n        /* \"#utility.yul\":91:419   */\n      pop\n        /* \"#utility.yul\":7:419   */\n      swap4\n      swap3\n      pop\n      pop\n      pop\n      jump\t// out\n        /* \"#utility.yul\":439:779   */\n    tag_77:\n        /* \"#utility.yul\":495:500   */\n      0x00\n        /* \"#utility.yul\":544:547   */\n      dup3\n        /* \"#utility.yul\":537:541   */\n      0x1f\n        /* \"#utility.yul\":529:535   */\n      dup4\n        /* \"#utility.yul\":525:542   */\n      add\n        /* \"#utility.yul\":521:548   */\n      slt\n        /* \"#utility.yul\":511:633   */\n      tag_79\n      jumpi\n        /* \"#utility.yul\":552:631   */\n      tag_80\n      tag_81\n      jump\t// in\n    tag_80:\n        /* \"#utility.yul\":511:633   */\n    tag_79:\n        /* \"#utility.yul\":669:675   */\n      dup2\n        /* \"#utility.yul\":656:676   */\n      calldataload\n        /* \"#utility.yul\":694:773   */\n      tag_82\n        /* \"#utility.yul\":769:772   */\n      dup5\n        /* \"#utility.yul\":761:767   */\n      dup3\n        /* \"#utility.yul\":754:758   */\n      0x20\n        /* \"#utility.yul\":746:752   */\n      dup7\n        /* \"#utility.yul\":742:759   */\n      add\n        /* \"#utility.yul\":694:773   */\n      tag_66\n      jump\t// in\n    tag_82:\n        /* \"#utility.yul\":685:773   */\n      swap2\n      pop\n        /* \"#utility.yul\":501:779   */\n      pop\n        /* \"#utility.yul\":439:779   */\n      swap3\n      swap2\n      pop\n      pop\n      jump\t// out\n        /* \"#utility.yul\":785:924   */\n    tag_83:\n        /* \"#utility.yul\":831:836   */\n      0x00\n        /* \"#utility.yul\":869:875   */\n      dup2\n        /* \"#utility.yul\":856:876   */\n      calldataload\n        /* \"#utility.yul\":847:876   */\n      swap1\n      pop\n        /* \"#utility.yul\":885:918   */\n      tag_85\n        /* \"#utility.yul\":912:917   */\n      dup2\n        /* \"#utility.yul\":885:918   */\n      tag_86\n      jump\t// in\n    tag_85:\n        /* \"#utility.yul\":785:924   */\n      swap3\n      swap2\n      pop\n      pop\n      jump\t// out\n        /* \"#utility.yul\":930:1439   */\n    tag_10:\n        /* \"#utility.yul\":999:1005   */\n      0x00\n        /* \"#utility.yul\":1048:1050   */\n      0x20\n        /* \"#utility.yul\":1036:1045   */\n      dup3\n        /* \"#utility.yul\":1027:1034   */\n      dup5\n        /* \"#utility.yul\":1023:1046   */\n      sub\n        /* \"#utility.yul\":1019:1051   */\n      slt\n        /* \"#utility.yul\":1016:1135   */\n      iszero\n      tag_88\n      jumpi\n        /* \"#utility.yul\":1054:1133   */\n      tag_89\n      tag_90\n      jump\t// in\n    tag_89:\n        /* \"#utility.yul\":1016:1135   */\n    tag_88:\n        /* \"#utility.yul\":1202:1203   */\n      0x00\n        /* \"#utility.yul\":1191:1200   */\n      dup3\n        /* \"#utility.yul\":1187:1204   */\n      add\n        /* \"#utility.yul\":1174:1205   */\n      calldataload\n        /* \"#utility.yul\":1232:1250   */\n      0xffffffffffffffff\n        /* \"#utility.yul\":1224:1230   */\n      dup2\n        /* \"#utility.yul\":1221:1251   */\n      gt\n        /* \"#utility.yul\":1218:1335   */\n      iszero\n      tag_91\n      jumpi\n        /* \"#utility.yul\":1254:1333   */\n      tag_92\n      tag_93\n      jump\t// in\n    tag_92:\n        /* \"#utility.yul\":1218:1335   */\n    tag_91:\n        /* \"#utility.yul\":1359:1422   */\n      tag_94\n        /* \"#utility.yul\":1414:1421   */\n      dup5\n        /* \"#utility.yul\":1405:1411   */\n      dup3\n        /* \"#utility.yul\":1394:1403   */\n      dup6\n        /* \"#utility.yul\":1390:1412   */\n      add\n        /* \"#utility.yul\":1359:1422   */\n      tag_77\n      jump\t// in\n    tag_94:\n        /* \"#utility.yul\":1349:1422   */\n      swap2\n      pop\n        /* \"#utility.yul\":1145:1432   */\n      pop\n        /* \"#utility.yul\":930:1439   */\n      swap3\n      swap2\n      pop\n      pop\n      jump\t// out\n        /* \"#utility.yul\":1445:1774   */\n    tag_25:\n        /* \"#utility.yul\":1504:1510   */\n      0x00\n        /* \"#utility.yul\":1553:1555   */\n      0x20\n        /* \"#utility.yul\":1541:1550   */\n      dup3\n        /* \"#utility.yul\":1532:1539   */\n      dup5\n        /* \"#utility.yul\":1528:1551   */\n      sub\n        /* \"#utility.yul\":1524:1556   */\n      slt\n        /* \"#utility.yul\":1521:1640   */\n      iszero\n      tag_96\n      jumpi\n        /* \"#utility.yul\":1559:1638   */\n      tag_97\n      tag_90\n      jump\t// in\n    tag_97:\n        /* \"#utility.yul\":1521:1640   */\n    tag_96:\n        /* \"#utility.yul\":1679:1680   */\n      0x00\n        /* \"#utility.yul\":1704:1757   */\n      tag_98\n        /* \"#utility.yul\":1749:1756   */\n      dup5\n        /* \"#utility.yul\":1740:1746   */\n      dup3\n        /* \"#utility.yul\":1729:1738   */\n      dup6\n        /* \"#utility.yul\":1725:1747   */\n      add\n        /* \"#utility.yul\":1704:1757   */\n      tag_83\n      jump\t// in\n    tag_98:\n        /* \"#utility.yul\":1694:1757   */\n      swap2\n      pop\n        /* \"#utility.yul\":1650:1767   */\n      pop\n        /* \"#utility.yul\":1445:1774   */\n      swap3\n      swap2\n      pop\n      pop\n      jump\t// out\n        /* \"#utility.yul\":1780:1889   */\n    tag_99:\n        /* \"#utility.yul\":1861:1882   */\n      tag_101\n        /* \"#utility.yul\":1876:1881   */\n      dup2\n        /* \"#utility.yul\":1861:1882   */\n      tag_102\n      jump\t// in\n    tag_101:\n        /* \"#utility.yul\":1856:1859   */\n      dup3\n        /* \"#utility.yul\":1849:1883   */\n      mstore\n        /* \"#utility.yul\":1780:1889   */\n      pop\n      pop\n      jump\t// out\n        /* \"#utility.yul\":1895:2259   */\n    tag_103:\n        /* \"#utility.yul\":1983:1986   */\n      0x00\n        /* \"#utility.yul\":2011:2050   */\n      tag_105\n        /* \"#utility.yul\":2044:2049   */\n      dup3\n        /* \"#utility.yul\":2011:2050   */\n      tag_106\n      jump\t// in\n    tag_105:\n        /* \"#utility.yul\":2066:2137   */\n      tag_107\n        /* \"#utility.yul\":2130:2136   */\n      dup2\n        /* \"#utility.yul\":2125:2128   */\n      dup6\n        /* \"#utility.yul\":2066:2137   */\n      tag_108\n      jump\t// in\n    tag_107:\n        /* \"#utility.yul\":2059:2137   */\n      swap4\n      pop\n        /* \"#utility.yul\":2146:2198   */\n      tag_109\n        /* \"#utility.yul\":2191:2197   */\n      dup2\n        /* \"#utility.yul\":2186:2189   */\n      dup6\n        /* \"#utility.yul\":2179:2183   */\n      0x20\n        /* \"#utility.yul\":2172:2177   */\n      dup7\n        /* \"#utility.yul\":2168:2184   */\n      add\n        /* \"#utility.yul\":2146:2198   */\n      tag_110\n      jump\t// in\n    tag_109:\n        /* \"#utility.yul\":2223:2252   */\n      tag_111\n        /* \"#utility.yul\":2245:2251   */\n      dup2\n        /* \"#utility.yul\":2223:2252   */\n      tag_112\n      jump\t// in\n    tag_111:\n        /* \"#utility.yul\":2218:2221   */\n      dup5\n        /* \"#utility.yul\":2214:2253   */\n      add\n        /* \"#utility.yul\":2207:2253   */\n      swap2\n      pop\n        /* \"#utility.yul\":1987:2259   */\n      pop\n        /* \"#utility.yul\":1895:2259   */\n      swap3\n      swap2\n      pop\n      pop\n      jump\t// out\n        /* \"#utility.yul\":2265:2642   */\n    tag_113:\n        /* \"#utility.yul\":2371:2374   */\n      0x00\n        /* \"#utility.yul\":2399:2438   */\n      tag_115\n        /* \"#utility.yul\":2432:2437   */\n      dup3\n        /* \"#utility.yul\":2399:2438   */\n      tag_106\n      jump\t// in\n    tag_115:\n        /* \"#utility.yul\":2454:2543   */\n      tag_116\n        /* \"#utility.yul\":2536:2542   */\n      dup2\n        /* \"#utility.yul\":2531:2534   */\n      dup6\n        /* \"#utility.yul\":2454:2543   */\n      tag_117\n      jump\t// in\n    tag_116:\n        /* \"#utility.yul\":2447:2543   */\n      swap4\n      pop\n        /* \"#utility.yul\":2552:2604   */\n      tag_118\n        /* \"#utility.yul\":2597:2603   */\n      dup2\n        /* \"#utility.yul\":2592:2595   */\n      dup6\n        /* \"#utility.yul\":2585:2589   */\n      0x20\n        /* \"#utility.yul\":2578:2583   */\n      dup7\n        /* \"#utility.yul\":2574:2590   */\n      add\n        /* \"#utility.yul\":2552:2604   */\n      tag_110\n      jump\t// in\n    tag_118:\n        /* \"#utility.yul\":2629:2635   */\n      dup1\n        /* \"#utility.yul\":2624:2627   */\n      dup5\n        /* \"#utility.yul\":2620:2636   */\n      add\n        /* \"#utility.yul\":2613:2636   */\n      swap2\n      pop\n        /* \"#utility.yul\":2375:2642   */\n      pop\n        /* \"#utility.yul\":2265:2642   */\n      swap3\n      swap2\n      pop\n      pop\n      jump\t// out\n        /* \"#utility.yul\":2672:3517   */\n    tag_119:\n        /* \"#utility.yul\":2775:2778   */\n      0x00\n        /* \"#utility.yul\":2812:2817   */\n      dup2\n        /* \"#utility.yul\":2806:2818   */\n      sload\n        /* \"#utility.yul\":2841:2877   */\n      tag_121\n        /* \"#utility.yul\":2867:2876   */\n      dup2\n        /* \"#utility.yul\":2841:2877   */\n      tag_54\n      jump\t// in\n    tag_121:\n        /* \"#utility.yul\":2893:2982   */\n      tag_122\n        /* \"#utility.yul\":2975:2981   */\n      dup2\n        /* \"#utility.yul\":2970:2973   */\n      dup7\n        /* \"#utility.yul\":2893:2982   */\n      tag_117\n      jump\t// in\n    tag_122:\n        /* \"#utility.yul\":2886:2982   */\n      swap5\n      pop\n        /* \"#utility.yul\":3013:3014   */\n      0x01\n        /* \"#utility.yul\":3002:3011   */\n      dup3\n        /* \"#utility.yul\":2998:3015   */\n      and\n        /* \"#utility.yul\":3029:3030   */\n      0x00\n        /* \"#utility.yul\":3024:3161   */\n      dup2\n      eq\n      tag_124\n      jumpi\n        /* \"#utility.yul\":3175:3176   */\n      0x01\n        /* \"#utility.yul\":3170:3511   */\n      dup2\n      eq\n      tag_125\n      jumpi\n        /* \"#utility.yul\":2991:3511   */\n      jump(tag_123)\n        /* \"#utility.yul\":3024:3161   */\n    tag_124:\n        /* \"#utility.yul\":3108:3112   */\n      0xff\n        /* \"#utility.yul\":3104:3113   */\n      not\n        /* \"#utility.yul\":3093:3102   */\n      dup4\n        /* \"#utility.yul\":3089:3114   */\n      and\n        /* \"#utility.yul\":3084:3087   */\n      dup7\n        /* \"#utility.yul\":3077:3115   */\n      mstore\n        /* \"#utility.yul\":3144:3150   */\n      dup2\n        /* \"#utility.yul\":3139:3142   */\n      dup7\n        /* \"#utility.yul\":3135:3151   */\n      add\n        /* \"#utility.yul\":3128:3151   */\n      swap4\n      pop\n        /* \"#utility.yul\":3024:3161   */\n      jump(tag_123)\n        /* \"#utility.yul\":3170:3511   */\n    tag_125:\n        /* \"#utility.yul\":3237:3275   */\n      tag_126\n        /* \"#utility.yul\":3269:3274   */\n      dup6\n        /* \"#utility.yul\":3237:3275   */\n      tag_127\n      jump\t// in\n    tag_126:\n        /* \"#utility.yul\":3297:3298   */\n      0x00\n        /* \"#utility.yul\":3311:3465   */\n    tag_128:\n        /* \"#utility.yul\":3325:3331   */\n      dup4\n        /* \"#utility.yul\":3322:3323   */\n      dup2\n        /* \"#utility.yul\":3319:3332   */\n      lt\n        /* \"#utility.yul\":3311:3465   */\n      iszero\n      tag_130\n      jumpi\n        /* \"#utility.yul\":3399:3406   */\n      dup2\n        /* \"#utility.yul\":3393:3407   */\n      sload\n        /* \"#utility.yul\":3389:3390   */\n      dup2\n        /* \"#utility.yul\":3384:3387   */\n      dup10\n        /* \"#utility.yul\":3380:3391   */\n      add\n        /* \"#utility.yul\":3373:3408   */\n      mstore\n        /* \"#utility.yul\":3449:3450   */\n      0x01\n        /* \"#utility.yul\":3440:3447   */\n      dup3\n        /* \"#utility.yul\":3436:3451   */\n      add\n        /* \"#utility.yul\":3425:3451   */\n      swap2\n      pop\n        /* \"#utility.yul\":3347:3351   */\n      0x20\n        /* \"#utility.yul\":3344:3345   */\n      dup2\n        /* \"#utility.yul\":3340:3352   */\n      add\n        /* \"#utility.yul\":3335:3352   */\n      swap1\n      pop\n        /* \"#utility.yul\":3311:3465   */\n      jump(tag_128)\n    tag_130:\n        /* \"#utility.yul\":3494:3500   */\n      dup4\n        /* \"#utility.yul\":3489:3492   */\n      dup9\n        /* \"#utility.yul\":3485:3501   */\n      add\n        /* \"#utility.yul\":3478:3501   */\n      swap6\n      pop\n        /* \"#utility.yul\":3177:3511   */\n      pop\n      pop\n        /* \"#utility.yul\":2991:3511   */\n    tag_123:\n      pop\n        /* \"#utility.yul\":2779:3517   */\n      pop\n      pop\n        /* \"#utility.yul\":2672:3517   */\n      swap3\n      swap2\n      pop\n      pop\n      jump\t// out\n        /* \"#utility.yul\":3523:3641   */\n    tag_131:\n        /* \"#utility.yul\":3610:3634   */\n      tag_133\n        /* \"#utility.yul\":3628:3633   */\n      dup2\n        /* \"#utility.yul\":3610:3634   */\n      tag_134\n      jump\t// in\n    tag_133:\n        /* \"#utility.yul\":3605:3608   */\n      dup3\n        /* \"#utility.yul\":3598:3635   */\n      mstore\n        /* \"#utility.yul\":3523:3641   */\n      pop\n      pop\n      jump\t// out\n        /* \"#utility.yul\":3647:3922   */\n    tag_36:\n        /* \"#utility.yul\":3779:3782   */\n      0x00\n        /* \"#utility.yul\":3801:3896   */\n      tag_136\n        /* \"#utility.yul\":3892:3895   */\n      dup3\n        /* \"#utility.yul\":3883:3889   */\n      dup5\n        /* \"#utility.yul\":3801:3896   */\n      tag_113\n      jump\t// in\n    tag_136:\n        /* \"#utility.yul\":3794:3896   */\n      swap2\n      pop\n        /* \"#utility.yul\":3913:3916   */\n      dup2\n        /* \"#utility.yul\":3906:3916   */\n      swap1\n      pop\n        /* \"#utility.yul\":3647:3922   */\n      swap3\n      swap2\n      pop\n      pop\n      jump\t// out\n        /* \"#utility.yul\":3928:4197   */\n    tag_47:\n        /* \"#utility.yul\":4057:4060   */\n      0x00\n        /* \"#utility.yul\":4079:4171   */\n      tag_138\n        /* \"#utility.yul\":4167:4170   */\n      dup3\n        /* \"#utility.yul\":4158:4164   */\n      dup5\n        /* \"#utility.yul\":4079:4171   */\n      tag_119\n      jump\t// in\n    tag_138:\n        /* \"#utility.yul\":4072:4171   */\n      swap2\n      pop\n        /* \"#utility.yul\":4188:4191   */\n      dup2\n        /* \"#utility.yul\":4181:4191   */\n      swap1\n      pop\n        /* \"#utility.yul\":3928:4197   */\n      swap3\n      swap2\n      pop\n      pop\n      jump\t// out\n        /* \"#utility.yul\":4203:4413   */\n    tag_18:\n        /* \"#utility.yul\":4290:4294   */\n      0x00\n        /* \"#utility.yul\":4328:4330   */\n      0x20\n        /* \"#utility.yul\":4317:4326   */\n      dup3\n        /* \"#utility.yul\":4313:4331   */\n      add\n        /* \"#utility.yul\":4305:4331   */\n      swap1\n      pop\n        /* \"#utility.yul\":4341:4406   */\n      tag_140\n        /* \"#utility.yul\":4403:4404   */\n      0x00\n        /* \"#utility.yul\":4392:4401   */\n      dup4\n        /* \"#utility.yul\":4388:4405   */\n      add\n        /* \"#utility.yul\":4379:4385   */\n      dup5\n        /* \"#utility.yul\":4341:4406   */\n      tag_99\n      jump\t// in\n    tag_140:\n        /* \"#utility.yul\":4203:4413   */\n      swap3\n      swap2\n      pop\n      pop\n      jump\t// out\n        /* \"#utility.yul\":4419:4732   */\n    tag_28:\n        /* \"#utility.yul\":4532:4536   */\n      0x00\n        /* \"#utility.yul\":4570:4572   */\n      0x20\n        /* \"#utility.yul\":4559:4568   */\n      dup3\n        /* \"#utility.yul\":4555:4573   */\n      add\n        /* \"#utility.yul\":4547:4573   */\n      swap1\n      pop\n        /* \"#utility.yul\":4619:4628   */\n      dup2\n        /* \"#utility.yul\":4613:4617   */\n      dup2\n        /* \"#utility.yul\":4609:4629   */\n      sub\n        /* \"#utility.yul\":4605:4606   */\n      0x00\n        /* \"#utility.yul\":4594:4603   */\n      dup4\n        /* \"#utility.yul\":4590:4607   */\n      add\n        /* \"#utility.yul\":4583:4630   */\n      mstore\n        /* \"#utility.yul\":4647:4725   */\n      tag_142\n        /* \"#utility.yul\":4720:4724   */\n      dup2\n        /* \"#utility.yul\":4711:4717   */\n      dup5\n        /* \"#utility.yul\":4647:4725   */\n      tag_103\n      jump\t// in\n    tag_142:\n        /* \"#utility.yul\":4639:4725   */\n      swap1\n      pop\n        /* \"#utility.yul\":4419:4732   */\n      swap3\n      swap2\n      pop\n      pop\n      jump\t// out\n        /* \"#utility.yul\":4738:4960   */\n    tag_13:\n        /* \"#utility.yul\":4831:4835   */\n      0x00\n        /* \"#utility.yul\":4869:4871   */\n      0x20\n        /* \"#utility.yul\":4858:4867   */\n      dup3\n        /* \"#utility.yul\":4854:4872   */\n      add\n        /* \"#utility.yul\":4846:4872   */\n      swap1\n      pop\n        /* \"#utility.yul\":4882:4953   */\n      tag_144\n        /* \"#utility.yul\":4950:4951   */\n      0x00\n        /* \"#utility.yul\":4939:4948   */\n      dup4\n        /* \"#utility.yul\":4935:4952   */\n      add\n        /* \"#utility.yul\":4926:4932   */\n      dup5\n        /* \"#utility.yul\":4882:4953   */\n      tag_131\n      jump\t// in\n    tag_144:\n        /* \"#utility.yul\":4738:4960   */\n      swap3\n      swap2\n      pop\n      pop\n      jump\t// out\n        /* \"#utility.yul\":4966:5095   */\n    tag_71:\n        /* \"#utility.yul\":5000:5006   */\n      0x00\n        /* \"#utility.yul\":5027:5047   */\n      tag_146\n      tag_147\n      jump\t// in\n    tag_146:\n        /* \"#utility.yul\":5017:5047   */\n      swap1\n      pop\n        /* \"#utility.yul\":5056:5089   */\n      tag_148\n        /* \"#utility.yul\":5084:5088   */\n      dup3\n        /* \"#utility.yul\":5076:5082   */\n      dup3\n        /* \"#utility.yul\":5056:5089   */\n      tag_149\n      jump\t// in\n    tag_148:\n        /* \"#utility.yul\":4966:5095   */\n      swap2\n      swap1\n      pop\n      jump\t// out\n        /* \"#utility.yul\":5101:5176   */\n    tag_147:\n        /* \"#utility.yul\":5134:5140   */\n      0x00\n        /* \"#utility.yul\":5167:5169   */\n      0x40\n        /* \"#utility.yul\":5161:5170   */\n      mload\n        /* \"#utility.yul\":5151:5170   */\n      swap1\n      pop\n        /* \"#utility.yul\":5101:5176   */\n      swap1\n      jump\t// out\n        /* \"#utility.yul\":5182:5490   */\n    tag_70:\n        /* \"#utility.yul\":5244:5248   */\n      0x00\n        /* \"#utility.yul\":5334:5352   */\n      0xffffffffffffffff\n        /* \"#utility.yul\":5326:5332   */\n      dup3\n        /* \"#utility.yul\":5323:5353   */\n      gt\n        /* \"#utility.yul\":5320:5376   */\n      iszero\n      tag_152\n      jumpi\n        /* \"#utility.yul\":5356:5374   */\n      tag_153\n      tag_154\n      jump\t// in\n    tag_153:\n        /* \"#utility.yul\":5320:5376   */\n    tag_152:\n        /* \"#utility.yul\":5394:5423   */\n      tag_155\n        /* \"#utility.yul\":5416:5422   */\n      dup3\n        /* \"#utility.yul\":5394:5423   */\n      tag_112\n      jump\t// in\n    tag_155:\n        /* \"#utility.yul\":5386:5423   */\n      swap1\n      pop\n        /* \"#utility.yul\":5478:5482   */\n      0x20\n        /* \"#utility.yul\":5472:5476   */\n      dup2\n        /* \"#utility.yul\":5468:5483   */\n      add\n        /* \"#utility.yul\":5460:5483   */\n      swap1\n      pop\n        /* \"#utility.yul\":5182:5490   */\n      swap2\n      swap1\n      pop\n      jump\t// out\n        /* \"#utility.yul\":5496:5637   */\n    tag_127:\n        /* \"#utility.yul\":5545:5549   */\n      0x00\n        /* \"#utility.yul\":5568:5571   */\n      dup2\n        /* \"#utility.yul\":5560:5571   */\n      swap1\n      pop\n        /* \"#utility.yul\":5591:5594   */\n      dup2\n        /* \"#utility.yul\":5588:5589   */\n      0x00\n        /* \"#utility.yul\":5581:5595   */\n      mstore\n        /* \"#utility.yul\":5625:5629   */\n      0x20\n        /* \"#utility.yul\":5622:5623   */\n      0x00\n        /* \"#utility.yul\":5612:5630   */\n      keccak256\n        /* \"#utility.yul\":5604:5630   */\n      swap1\n      pop\n        /* \"#utility.yul\":5496:5637   */\n      swap2\n      swap1\n      pop\n      jump\t// out\n        /* \"#utility.yul\":5643:5742   */\n    tag_106:\n        /* \"#utility.yul\":5695:5701   */\n      0x00\n        /* \"#utility.yul\":5729:5734   */\n      dup2\n        /* \"#utility.yul\":5723:5735   */\n      mload\n        /* \"#utility.yul\":5713:5735   */\n      swap1\n      pop\n        /* \"#utility.yul\":5643:5742   */\n      swap2\n      swap1\n      pop\n      jump\t// out\n        /* \"#utility.yul\":5748:5917   */\n    tag_108:\n        /* \"#utility.yul\":5832:5843   */\n      0x00\n        /* \"#utility.yul\":5866:5872   */\n      dup3\n        /* \"#utility.yul\":5861:5864   */\n      dup3\n        /* \"#utility.yul\":5854:5873   */\n      mstore\n        /* \"#utility.yul\":5906:5910   */\n      0x20\n        /* \"#utility.yul\":5901:5904   */\n      dup3\n        /* \"#utility.yul\":5897:5911   */\n      add\n        /* \"#utility.yul\":5882:5911   */\n      swap1\n      pop\n        /* \"#utility.yul\":5748:5917   */\n      swap3\n      swap2\n      pop\n      pop\n      jump\t// out\n        /* \"#utility.yul\":5923:6071   */\n    tag_117:\n        /* \"#utility.yul\":6025:6036   */\n      0x00\n        /* \"#utility.yul\":6062:6065   */\n      dup2\n        /* \"#utility.yul\":6047:6065   */\n      swap1\n      pop\n        /* \"#utility.yul\":5923:6071   */\n      swap3\n      swap2\n      pop\n      pop\n      jump\t// out\n        /* \"#utility.yul\":6077:6382   */\n    tag_64:\n        /* \"#utility.yul\":6117:6120   */\n      0x00\n        /* \"#utility.yul\":6136:6156   */\n      tag_161\n        /* \"#utility.yul\":6154:6155   */\n      dup3\n        /* \"#utility.yul\":6136:6156   */\n      tag_134\n      jump\t// in\n    tag_161:\n        /* \"#utility.yul\":6131:6156   */\n      swap2\n      pop\n        /* \"#utility.yul\":6170:6190   */\n      tag_162\n        /* \"#utility.yul\":6188:6189   */\n      dup4\n        /* \"#utility.yul\":6170:6190   */\n      tag_134\n      jump\t// in\n    tag_162:\n        /* \"#utility.yul\":6165:6190   */\n      swap3\n      pop\n        /* \"#utility.yul\":6324:6325   */\n      dup3\n        /* \"#utility.yul\":6256:6322   */\n      0xffffffffffffffffffffffffffffffffffffffffffffffffffffffffffffffff\n        /* \"#utility.yul\":6252:6326   */\n      sub\n        /* \"#utility.yul\":6249:6250   */\n      dup3\n        /* \"#utility.yul\":6246:6327   */\n      gt\n        /* \"#utility.yul\":6243:6350   */\n      iszero\n      tag_163\n      jumpi\n        /* \"#utility.yul\":6330:6348   */\n      tag_164\n      tag_165\n      jump\t// in\n    tag_164:\n        /* \"#utility.yul\":6243:6350   */\n    tag_163:\n        /* \"#utility.yul\":6374:6375   */\n      dup3\n        /* \"#utility.yul\":6371:6372   */\n      dup3\n        /* \"#utility.yul\":6367:6376   */\n      add\n        /* \"#utility.yul\":6360:6376   */\n      swap1\n      pop\n        /* \"#utility.yul\":6077:6382   */\n      swap3\n      swap2\n      pop\n      pop\n      jump\t// out\n        /* \"#utility.yul\":6388:6478   */\n    tag_102:\n        /* \"#utility.yul\":6422:6429   */\n      0x00\n        /* \"#utility.yul\":6465:6470   */\n      dup2\n        /* \"#utility.yul\":6458:6471   */\n      iszero\n        /* \"#utility.yul\":6451:6472   */\n      iszero\n        /* \"#utility.yul\":6440:6472   */\n      swap1\n      pop\n        /* \"#utility.yul\":6388:6478   */\n      swap2\n      swap1\n      pop\n      jump\t// out\n        /* \"#utility.yul\":6484:6561   */\n    tag_134:\n        /* \"#utility.yul\":6521:6528   */\n      0x00\n        /* \"#utility.yul\":6550:6555   */\n      dup2\n        /* \"#utility.yul\":6539:6555   */\n      swap1\n      pop\n        /* \"#utility.yul\":6484:6561   */\n      swap2\n      swap1\n      pop\n      jump\t// out\n        /* \"#utility.yul\":6567:6721   */\n    tag_76:\n        /* \"#utility.yul\":6651:6657   */\n      dup3\n        /* \"#utility.yul\":6646:6649   */\n      dup2\n        /* \"#utility.yul\":6641:6644   */\n      dup4\n        /* \"#utility.yul\":6628:6658   */\n      calldatacopy\n        /* \"#utility.yul\":6713:6714   */\n      0x00\n        /* \"#utility.yul\":6704:6710   */\n      dup4\n        /* \"#utility.yul\":6699:6702   */\n      dup4\n        /* \"#utility.yul\":6695:6711   */\n      add\n        /* \"#utility.yul\":6688:6715   */\n      mstore\n        /* \"#utility.yul\":6567:6721   */\n      pop\n      pop\n      pop\n      jump\t// out\n        /* \"#utility.yul\":6727:7034   */\n    tag_110:\n        /* \"#utility.yul\":6795:6796   */\n      0x00\n        /* \"#utility.yul\":6805:6918   */\n    tag_170:\n        /* \"#utility.yul\":6819:6825   */\n      dup4\n        /* \"#utility.yul\":6816:6817   */\n      dup2\n        /* \"#utility.yul\":6813:6826   */\n      lt\n        /* \"#utility.yul\":6805:6918   */\n      iszero\n      tag_172\n      jumpi\n        /* \"#utility.yul\":6904:6905   */\n      dup1\n        /* \"#utility.yul\":6899:6902   */\n      dup3\n        /* \"#utility.yul\":6895:6906   */\n      add\n        /* \"#utility.yul\":6889:6907   */\n      mload\n        /* \"#utility.yul\":6885:6886   */\n      dup2\n        /* \"#utility.yul\":6880:6883   */\n      dup5\n        /* \"#utility.yul\":6876:6887   */\n      add\n        /* \"#utility.yul\":6869:6908   */\n      mstore\n        /* \"#utility.yul\":6841:6843   */\n      0x20\n        /* \"#utility.yul\":6838:6839   */\n      dup2\n        /* \"#utility.yul\":6834:6844   */\n      add\n        /* \"#utility.yul\":6829:6844   */\n      swap1\n      pop\n        /* \"#utility.yul\":6805:6918   */\n      jump(tag_170)\n    tag_172:\n        /* \"#utility.yul\":6936:6942   */\n      dup4\n        /* \"#utility.yul\":6933:6934   */\n      dup2\n        /* \"#utility.yul\":6930:6943   */\n      gt\n        /* \"#utility.yul\":6927:7028   */\n      iszero\n      tag_173\n      jumpi\n        /* \"#utility.yul\":7016:7017   */\n      0x00\n        /* \"#utility.yul\":7007:7013   */\n      dup5\n        /* \"#utility.yul\":7002:7005   */\n      dup5\n        /* \"#utility.yul\":6998:7014   */\n      add\n        /* \"#utility.yul\":6991:7018   */\n      mstore\n        /* \"#utility.yul\":6927:7028   */\n    tag_173:\n        /* \"#utility.yul\":6776:7034   */\n      pop\n        /* \"#utility.yul\":6727:7034   */\n      pop\n      pop\n      pop\n      jump\t// out\n        /* \"#utility.yul\":7040:7360   */\n    tag_54:\n        /* \"#utility.yul\":7084:7090   */\n      0x00\n        /* \"#utility.yul\":7121:7122   */\n      0x02\n        /* \"#utility.yul\":7115:7119   */\n      dup3\n        /* \"#utility.yul\":7111:7123   */\n      div\n        /* \"#utility.yul\":7101:7123   */\n      swap1\n      pop\n        /* \"#utility.yul\":7168:7169   */\n      0x01\n        /* \"#utility.yul\":7162:7166   */\n      dup3\n        /* \"#utility.yul\":7158:7170   */\n      and\n        /* \"#utility.yul\":7189:7207   */\n      dup1\n        /* \"#utility.yul\":7179:7260   */\n      tag_175\n      jumpi\n        /* \"#utility.yul\":7245:7249   */\n      0x7f\n        /* \"#utility.yul\":7237:7243   */\n      dup3\n        /* \"#utility.yul\":7233:7250   */\n      and\n        /* \"#utility.yul\":7223:7250   */\n      swap2\n      pop\n        /* \"#utility.yul\":7179:7260   */\n    tag_175:\n        /* \"#utility.yul\":7307:7309   */\n      0x20\n        /* \"#utility.yul\":7299:7305   */\n      dup3\n        /* \"#utility.yul\":7296:7310   */\n      lt\n        /* \"#utility.yul\":7276:7294   */\n      dup2\n        /* \"#utility.yul\":7273:7311   */\n      eq\n        /* \"#utility.yul\":7270:7354   */\n      iszero\n      tag_176\n      jumpi\n        /* \"#utility.yul\":7326:7344   */\n      tag_177\n      tag_178\n      jump\t// in\n    tag_177:\n        /* \"#utility.yul\":7270:7354   */\n    tag_176:\n        /* \"#utility.yul\":7091:7360   */\n      pop\n        /* \"#utility.yul\":7040:7360   */\n      swap2\n      swap1\n      pop\n      jump\t// out\n        /* \"#utility.yul\":7366:7647   */\n    tag_149:\n        /* \"#utility.yul\":7449:7476   */\n      tag_180\n        /* \"#utility.yul\":7471:7475   */\n      dup3\n        /* \"#utility.yul\":7449:7476   */\n      tag_112\n      jump\t// in\n    tag_180:\n        /* \"#utility.yul\":7441:7447   */\n      dup2\n        /* \"#utility.yul\":7437:7477   */\n      add\n        /* \"#utility.yul\":7579:7585   */\n      dup2\n        /* \"#utility.yul\":7567:7577   */\n      dup2\n        /* \"#utility.yul\":7564:7586   */\n      lt\n        /* \"#utility.yul\":7543:7561   */\n      0xffffffffffffffff\n        /* \"#utility.yul\":7531:7541   */\n      dup3\n        /* \"#utility.yul\":7528:7562   */\n      gt\n        /* \"#utility.yul\":7525:7587   */\n      or\n        /* \"#utility.yul\":7522:7610   */\n      iszero\n      tag_181\n      jumpi\n        /* \"#utility.yul\":7590:7608   */\n      tag_182\n      tag_154\n      jump\t// in\n    tag_182:\n        /* \"#utility.yul\":7522:7610   */\n    tag_181:\n        /* \"#utility.yul\":7630:7640   */\n      dup1\n        /* \"#utility.yul\":7626:7628   */\n      0x40\n        /* \"#utility.yul\":7619:7641   */\n      mstore\n        /* \"#utility.yul\":7409:7647   */\n      pop\n        /* \"#utility.yul\":7366:7647   */\n      pop\n      pop\n      jump\t// out\n        /* \"#utility.yul\":7653:7886   */\n    tag_50:\n        /* \"#utility.yul\":7692:7695   */\n      0x00\n        /* \"#utility.yul\":7715:7739   */\n      tag_184\n        /* \"#utility.yul\":7733:7738   */\n      dup3\n        /* \"#utility.yul\":7715:7739   */\n      tag_134\n      jump\t// in\n    tag_184:\n        /* \"#utility.yul\":7706:7739   */\n      swap2\n      pop\n        /* \"#utility.yul\":7761:7827   */\n      0xffffffffffffffffffffffffffffffffffffffffffffffffffffffffffffffff\n        /* \"#utility.yul\":7754:7759   */\n      dup3\n        /* \"#utility.yul\":7751:7828   */\n      eq\n        /* \"#utility.yul\":7748:7851   */\n      iszero\n      tag_185\n      jumpi\n        /* \"#utility.yul\":7831:7849   */\n      tag_186\n      tag_165\n      jump\t// in\n    tag_186:\n        /* \"#utility.yul\":7748:7851   */\n    tag_185:\n        /* \"#utility.yul\":7878:7879   */\n      0x01\n        /* \"#utility.yul\":7871:7876   */\n      dup3\n        /* \"#utility.yul\":7867:7880   */\n      add\n        /* \"#utility.yul\":7860:7880   */\n      swap1\n      pop\n        /* \"#utility.yul\":7653:7886   */\n      swap2\n      swap1\n      pop\n      jump\t// out\n        /* \"#utility.yul\":7892:8072   */\n    tag_165:\n        /* \"#utility.yul\":7940:8017   */\n      0x4e487b7100000000000000000000000000000000000000000000000000000000\n        /* \"#utility.yul\":7937:7938   */\n      0x00\n        /* \"#utility.yul\":7930:8018   */\n      mstore\n        /* \"#utility.yul\":8037:8041   */\n      0x11\n        /* \"#utility.yul\":8034:8035   */\n      0x04\n        /* \"#utility.yul\":8027:8042   */\n      mstore\n        /* \"#utility.yul\":8061:8065   */\n      0x24\n        /* \"#utility.yul\":8058:8059   */\n      0x00\n        /* \"#utility.yul\":8051:8066   */\n      revert\n        /* \"#utility.yul\":8078:8258   */\n    tag_178:\n        /* \"#utility.yul\":8126:8203   */\n      0x4e487b7100000000000000000000000000000000000000000000000000000000\n        /* \"#utility.yul\":8123:8124   */\n      0x00\n        /* \"#utility.yul\":8116:8204   */\n      mstore\n        /* \"#utility.yul\":8223:8227   */\n      0x22\n        /* \"#utility.yul\":8220:8221   */\n      0x04\n        /* \"#utility.yul\":8213:8228   */\n      mstore\n        /* \"#utility.yul\":8247:8251   */\n      0x24\n        /* \"#utility.yul\":8244:8245   */\n      0x00\n        /* \"#utility.yul\":8237:8252   */\n      revert\n        /* \"#utility.yul\":8264:8444   */\n    tag_44:\n        /* \"#utility.yul\":8312:8389   */\n      0x4e487b7100000000000000000000000000000000000000000000000000000000\n        /* \"#utility.yul\":8309:8310   */\n      0x00\n        /* \"#utility.yul\":8302:8390   */\n      mstore\n        /* \"#utility.yul\":8409:8413   */\n      0x32\n        /* \"#utility.yul\":8406:8407   */\n      0x04\n        /* \"#utility.yul\":8399:8414   */\n      mstore\n        /* \"#utility.yul\":8433:8437   */\n      0x24\n        /* \"#utility.yul\":8430:8431   */\n      0x00\n        /* \"#utility.yul\":8423:8438   */\n      revert\n        /* \"#utility.yul\":8450:8630   */\n    tag_154:\n        /* \"#utility.yul\":8498:8575   */\n      0x4e487b7100000000000000000000000000000000000000000000000000000000\n        /* \"#utility.yul\":8495:8496   */\n      0x00\n        /* \"#utility.yul\":8488:8576   */\n      mstore\n        /* \"#utility.yul\":8595:8599   */\n      0x41\n        /* \"#utility.yul\":8592:8593   */\n      0x04\n        /* \"#utility.yul\":8585:8600   */\n      mstore\n        /* \"#utility.yul\":8619:8623   */\n      0x24\n        /* \"#utility.yul\":8616:8617   */\n      0x00\n        /* \"#utility.yul\":8609:8624   */\n      revert\n        /* \"#utility.yul\":8636:8753   */\n    tag_81:\n        /* \"#utility.yul\":8745:8746   */\n      0x00\n        /* \"#utility.yul\":8742:8743   */\n      dup1\n        /* \"#utility.yul\":8735:8747   */\n      revert\n        /* \"#utility.yul\":8759:8876   */\n    tag_74:\n        /* \"#utility.yul\":8868:8869   */\n      0x00\n        /* \"#utility.yul\":8865:8866   */\n      dup1\n        /* \"#utility.yul\":8858:8870   */\n      revert\n        /* \"#utility.yul\":8882:8999   */\n    tag_93:\n        /* \"#utility.yul\":8991:8992   */\n      0x00\n        /* \"#utility.yul\":8988:8989   */\n      dup1\n        /* \"#utility.yul\":8981:8993   */\n      revert\n        /* \"#utility.yul\":9005:9122   */\n    tag_90:\n        /* \"#utility.yul\":9114:9115   */\n      0x00\n        /* \"#utility.yul\":9111:9112   */\n      dup1\n        /* \"#utility.yul\":9104:9116   */\n      revert\n        /* \"#utility.yul\":9128:9230   */\n    tag_112:\n        /* \"#utility.yul\":9169:9175   */\n      0x00\n        /* \"#utility.yul\":9220:9222   */\n      0x1f\n        /* \"#utility.yul\":9216:9223   */\n      not\n        /* \"#utility.yul\":9211:9213   */\n      0x1f\n        /* \"#utility.yul\":9204:9209   */\n      dup4\n        /* \"#utility.yul\":9200:9214   */\n      add\n        /* \"#utility.yul\":9196:9224   */\n      and\n        /* \"#utility.yul\":9186:9224   */\n      swap1\n      pop\n        /* \"#utility.yul\":9128:9230   */\n      swap2\n      swap1\n      pop\n      jump\t// out\n        /* \"#utility.yul\":9236:9358   */\n    tag_86:\n        /* \"#utility.yul\":9309:9333   */\n      tag_197\n        /* \"#utility.yul\":9327:9332   */\n      dup2\n        /* \"#utility.yul\":9309:9333   */\n      tag_134\n      jump\t// in\n    tag_197:\n        /* \"#utility.yul\":9302:9307   */\n      dup2\n        /* \"#utility.yul\":9299:9334   */\n      eq\n        /* \"#utility.yul\":9289:9352   */\n      tag_198\n      jumpi\n        /* \"#utility.yul\":9348:9349   */\n      0x00\n        /* \"#utility.yul\":9345:9346   */\n      dup1\n        /* \"#utility.yul\":9338:9350   */\n      revert\n        /* \"#utility.yul\":9289:9352   */\n    tag_198:\n        /* \"#utility.yul\":9236:9358   */\n      pop\n      jump\t// out\n\n    auxdata: 0xa2646970667358221220eebc35eda0fc88041a974aa738e98ea0fdc37f8d755c0ef4be3f9af26097485a64736f6c63430008070033\n}\n",
				"bytecode": {
					"linkReferences": {},
					"object": "60806040523480156200001157600080fd5b5060405162000e2938038062000e29833981810160405281019062000037919062000329565b80600190805190602001906200004f92919062000057565b505062000532565b828054828255906000526020600020908101928215620000ab579160200282015b82811115620000aa57825182908051906020019062000099929190620000be565b509160200191906001019062000078565b5b509050620000ba91906200014f565b5090565b828054620000cc906200043e565b90600052602060002090601f016020900481019282620000f057600085556200013c565b82601f106200010b57805160ff19168380011785556200013c565b828001600101855582156200013c579182015b828111156200013b5782518255916020019190600101906200011e565b5b5090506200014b919062000177565b5090565b5b8082111562000173576000818162000169919062000196565b5060010162000150565b5090565b5b808211156200019257600081600090555060010162000178565b5090565b508054620001a4906200043e565b6000825580601f10620001b85750620001d9565b601f016020900490600052602060002090810190620001d8919062000177565b5b50565b6000620001f3620001ed84620003a3565b6200037a565b905080838252602082019050828560208602820111156200021957620002186200050d565b5b60005b858110156200026e57815167ffffffffffffffff81111562000243576200024262000508565b5b808601620002528982620002f6565b855260208501945060208401935050506001810190506200021c565b5050509392505050565b60006200028f6200028984620003d2565b6200037a565b905082815260208101848484011115620002ae57620002ad62000512565b5b620002bb84828562000408565b509392505050565b600082601f830112620002db57620002da62000508565b5b8151620002ed848260208601620001dc565b91505092915050565b600082601f8301126200030e576200030d62000508565b5b81516200032084826020860162000278565b91505092915050565b6000602082840312156200034257620003416200051c565b5b600082015167ffffffffffffffff81111562000363576200036262000517565b5b6200037184828501620002c3565b91505092915050565b60006200038662000399565b905062000394828262000474565b919050565b6000604051905090565b600067ffffffffffffffff821115620003c157620003c0620004d9565b5b602082029050602081019050919050565b600067ffffffffffffffff821115620003f057620003ef620004d9565b5b620003fb8262000521565b9050602081019050919050565b60005b83811015620004285780820151818401526020810190506200040b565b8381111562000438576000848401525b50505050565b600060028204905060018216806200045757607f821691505b602082108114156200046e576200046d620004aa565b5b50919050565b6200047f8262000521565b810181811067ffffffffffffffff82111715620004a157620004a0620004d9565b5b80604052505050565b7f4e487b7100000000000000000000000000000000000000000000000000000000600052602260045260246000fd5b7f4e487b7100000000000000000000000000000000000000000000000000000000600052604160045260246000fd5b600080fd5b600080fd5b600080fd5b600080fd5b600080fd5b6000601f19601f8301169050919050565b6108e780620005426000396000f3fe608060405234801561001057600080fd5b50600436106100575760003560e01c80634a3bf3771461005c578063538c91b21461008c5780638d4b44d9146100bc578063b13c744b146100ec578063e89927ef1461011c575b600080fd5b610076600480360381019061007191906103ca565b610138565b60405161008391906105b2565b60405180910390f35b6100a660048036038101906100a191906103ca565b610172565b6040516100b39190610575565b60405180910390f35b6100d660048036038101906100d191906103ca565b610220565b6040516100e391906105b2565b60405180910390f35b61010660048036038101906101019190610413565b61024e565b6040516101139190610590565b60405180910390f35b610136600480360381019061013191906103ca565b6102fa565b005b600061014382610172565b61014c57600080fd5b60008260405161015c9190610547565b9081526020016040518091039020549050919050565b600080600090505b60018054905081101561021557826040516020016101989190610547565b60405160208183030381529060405280519060200120600182815481106101c2576101c1610817565b5b906000526020600020016040516020016101dc919061055e565b60405160208183030381529060405280519060200120141561020257600191505061021b565b808061020d90610770565b91505061017a565b50600090505b919050565b6000818051602081018201805184825260208301602085012081835280955050505050506000915090505481565b6001818154811061025e57600080fd5b9060005260206000200160009150905080546102799061070d565b80601f01602080910402602001604051908101604052809291908181526020018280546102a59061070d565b80156102f25780601f106102c7576101008083540402835291602001916102f2565b820191906000526020600020905b8154815290600101906020018083116102d557829003601f168201915b505050505081565b61030381610172565b61030c57600080fd5b600160008260405161031e9190610547565b9081526020016040518091039020600082825461033b919061065f565b9250508190555050565b6000610358610353846105f2565b6105cd565b9050828152602081018484840111156103745761037361087a565b5b61037f8482856106cb565b509392505050565b600082601f83011261039c5761039b610875565b5b81356103ac848260208601610345565b91505092915050565b6000813590506103c48161089a565b92915050565b6000602082840312156103e0576103df610884565b5b600082013567ffffffffffffffff8111156103fe576103fd61087f565b5b61040a84828501610387565b91505092915050565b60006020828403121561042957610428610884565b5b6000610437848285016103b5565b91505092915050565b610449816106b5565b82525050565b600061045a82610638565b6104648185610643565b93506104748185602086016106da565b61047d81610889565b840191505092915050565b600061049382610638565b61049d8185610654565b93506104ad8185602086016106da565b80840191505092915050565b600081546104c68161070d565b6104d08186610654565b945060018216600081146104eb57600181146104fc5761052f565b60ff1983168652818601935061052f565b61050585610623565b60005b8381101561052757815481890152600182019150602081019050610508565b838801955050505b50505092915050565b610541816106c1565b82525050565b60006105538284610488565b915081905092915050565b600061056a82846104b9565b915081905092915050565b600060208201905061058a6000830184610440565b92915050565b600060208201905081810360008301526105aa818461044f565b905092915050565b60006020820190506105c76000830184610538565b92915050565b60006105d76105e8565b90506105e3828261073f565b919050565b6000604051905090565b600067ffffffffffffffff82111561060d5761060c610846565b5b61061682610889565b9050602081019050919050565b60008190508160005260206000209050919050565b600081519050919050565b600082825260208201905092915050565b600081905092915050565b600061066a826106c1565b9150610675836106c1565b9250827fffffffffffffffffffffffffffffffffffffffffffffffffffffffffffffffff038211156106aa576106a96107b9565b5b828201905092915050565b60008115159050919050565b6000819050919050565b82818337600083830152505050565b60005b838110156106f85780820151818401526020810190506106dd565b83811115610707576000848401525b50505050565b6000600282049050600182168061072557607f821691505b60208210811415610739576107386107e8565b5b50919050565b61074882610889565b810181811067ffffffffffffffff8211171561076757610766610846565b5b80604052505050565b600061077b826106c1565b91507fffffffffffffffffffffffffffffffffffffffffffffffffffffffffffffffff8214156107ae576107ad6107b9565b5b600182019050919050565b7f4e487b7100000000000000000000000000000000000000000000000000000000600052601160045260246000fd5b7f4e487b7100000000000000000000000000000000000000000000000000000000600052602260045260246000fd5b7f4e487b7100000000000000000000000000000000000000000000000000000000600052603260045260246000fd5b7f4e487b7100000000000000000000000000000000000000000000000000000000600052604160045260246000fd5b600080fd5b600080fd5b600080fd5b600080fd5b6000601f19601f8301169050919050565b6108a3816106c1565b81146108ae57600080fd5b5056fea2646970667358221220eebc35eda0fc88041a974aa738e98ea0fdc37f8d755c0ef4be3f9af26097485a64736f6c63430008070033",
					"opcodes": "PUSH1 0x80 PUSH1 0x40 MSTORE CALLVALUE DUP1 ISZERO PUSH3 0x11 JUMPI PUSH1 0x0 DUP1 REVERT JUMPDEST POP PUSH1 0x40 MLOAD PUSH3 0xE29 CODESIZE SUB DUP1 PUSH3 0xE29 DUP4 CODECOPY DUP2 DUP2 ADD PUSH1 0x40 MSTORE DUP2 ADD SWAP1 PUSH3 0x37 SWAP2 SWAP1 PUSH3 0x329 JUMP JUMPDEST DUP1 PUSH1 0x1 SWAP1 DUP1 MLOAD SWAP1 PUSH1 0x20 ADD SWAP1 PUSH3 0x4F SWAP3 SWAP2 SWAP1 PUSH3 0x57 JUMP JUMPDEST POP POP PUSH3 0x532 JUMP JUMPDEST DUP3 DUP1 SLOAD DUP3 DUP3 SSTORE SWAP1 PUSH1 0x0 MSTORE PUSH1 0x20 PUSH1 0x0 KECCAK256 SWAP1 DUP2 ADD SWAP3 DUP3 ISZERO PUSH3 0xAB JUMPI SWAP2 PUSH1 0x20 MUL DUP3 ADD JUMPDEST DUP3 DUP2 GT ISZERO PUSH3 0xAA JUMPI DUP3 MLOAD DUP3 SWAP1 DUP1 MLOAD SWAP1 PUSH1 0x20 ADD SWAP1 PUSH3 0x99 SWAP3 SWAP2 SWAP1 PUSH3 0xBE JUMP JUMPDEST POP SWAP2 PUSH1 0x20 ADD SWAP2 SWAP1 PUSH1 0x1 ADD SWAP1 PUSH3 0x78 JUMP JUMPDEST JUMPDEST POP SWAP1 POP PUSH3 0xBA SWAP2 SWAP1 PUSH3 0x14F JUMP JUMPDEST POP SWAP1 JUMP JUMPDEST DUP3 DUP1 SLOAD PUSH3 0xCC SWAP1 PUSH3 0x43E JUMP JUMPDEST SWAP1 PUSH1 0x0 MSTORE PUSH1 0x20 PUSH1 0x0 KECCAK256 SWAP1 PUSH1 0x1F ADD PUSH1 0x20 SWAP1 DIV DUP2 ADD SWAP3 DUP3 PUSH3 0xF0 JUMPI PUSH1 0x0 DUP6 SSTORE PUSH3 0x13C JUMP JUMPDEST DUP3 PUSH1 0x1F LT PUSH3 0x10B JUMPI DUP1 MLOAD PUSH1 0xFF NOT AND DUP4 DUP1 ADD OR DUP6 SSTORE PUSH3 0x13C JUMP JUMPDEST DUP3 DUP1 ADD PUSH1 0x1 ADD DUP6 SSTORE DUP3 ISZERO PUSH3 0x13C JUMPI SWAP2 DUP3 ADD JUMPDEST DUP3 DUP2 GT ISZERO PUSH3 0x13B JUMPI DUP3 MLOAD DUP3 SSTORE SWAP2 PUSH1 0x20 ADD SWAP2 SWAP1 PUSH1 0x1 ADD SWAP1 PUSH3 0x11E JUMP JUMPDEST JUMPDEST POP SWAP1 POP PUSH3 0x14B SWAP2 SWAP1 PUSH3 0x177 JUMP JUMPDEST POP SWAP1 JUMP JUMPDEST JUMPDEST DUP1 DUP3 GT ISZERO PUSH3 0x173 JUMPI PUSH1 0x0 DUP2 DUP2 PUSH3 0x169 SWAP2 SWAP1 PUSH3 0x196 JUMP JUMPDEST POP PUSH1 0x1 ADD PUSH3 0x150 JUMP JUMPDEST POP SWAP1 JUMP JUMPDEST JUMPDEST DUP1 DUP3 GT ISZERO PUSH3 0x192 JUMPI PUSH1 0x0 DUP2 PUSH1 0x0 SWAP1 SSTORE POP PUSH1 0x1 ADD PUSH3 0x178 JUMP JUMPDEST POP SWAP1 JUMP JUMPDEST POP DUP1 SLOAD PUSH3 0x1A4 SWAP1 PUSH3 0x43E JUMP JUMPDEST PUSH1 0x0 DUP3 SSTORE DUP1 PUSH1 0x1F LT PUSH3 0x1B8 JUMPI POP PUSH3 0x1D9 JUMP JUMPDEST PUSH1 0x1F ADD PUSH1 0x20 SWAP1 DIV SWAP1 PUSH1 0x0 MSTORE PUSH1 0x20 PUSH1 0x0 KECCAK256 SWAP1 DUP2 ADD SWAP1 PUSH3 0x1D8 SWAP2 SWAP1 PUSH3 0x177 JUMP JUMPDEST JUMPDEST POP JUMP JUMPDEST PUSH1 0x0 PUSH3 0x1F3 PUSH3 0x1ED DUP5 PUSH3 0x3A3 JUMP JUMPDEST PUSH3 0x37A JUMP JUMPDEST SWAP1 POP DUP1 DUP4 DUP3 MSTORE PUSH1 0x20 DUP3 ADD SWAP1 POP DUP3 DUP6 PUSH1 0x20 DUP7 MUL DUP3 ADD GT ISZERO PUSH3 0x219 JUMPI PUSH3 0x218 PUSH3 0x50D JUMP JUMPDEST JUMPDEST PUSH1 0x0 JUMPDEST DUP6 DUP2 LT ISZERO PUSH3 0x26E JUMPI DUP2 MLOAD PUSH8 0xFFFFFFFFFFFFFFFF DUP2 GT ISZERO PUSH3 0x243 JUMPI PUSH3 0x242 PUSH3 0x508 JUMP JUMPDEST JUMPDEST DUP1 DUP7 ADD PUSH3 0x252 DUP10 DUP3 PUSH3 0x2F6 JUMP JUMPDEST DUP6 MSTORE PUSH1 0x20 DUP6 ADD SWAP5 POP PUSH1 0x20 DUP5 ADD SWAP4 POP POP POP PUSH1 0x1 DUP2 ADD SWAP1 POP PUSH3 0x21C JUMP JUMPDEST POP POP POP SWAP4 SWAP3 POP POP POP JUMP JUMPDEST PUSH1 0x0 PUSH3 0x28F PUSH3 0x289 DUP5 PUSH3 0x3D2 JUMP JUMPDEST PUSH3 0x37A JUMP JUMPDEST SWAP1 POP DUP3 DUP2 MSTORE PUSH1 0x20 DUP2 ADD DUP5 DUP5 DUP5 ADD GT ISZERO PUSH3 0x2AE JUMPI PUSH3 0x2AD PUSH3 0x512 JUMP JUMPDEST JUMPDEST PUSH3 0x2BB DUP5 DUP3 DUP6 PUSH3 0x408 JUMP JUMPDEST POP SWAP4 SWAP3 POP POP POP JUMP JUMPDEST PUSH1 0x0 DUP3 PUSH1 0x1F DUP4 ADD SLT PUSH3 0x2DB JUMPI PUSH3 0x2DA PUSH3 0x508 JUMP JUMPDEST JUMPDEST DUP2 MLOAD PUSH3 0x2ED DUP5 DUP3 PUSH1 0x20 DUP7 ADD PUSH3 0x1DC JUMP JUMPDEST SWAP2 POP POP SWAP3 SWAP2 POP POP JUMP JUMPDEST PUSH1 0x0 DUP3 PUSH1 0x1F DUP4 ADD SLT PUSH3 0x30E JUMPI PUSH3 0x30D PUSH3 0x508 JUMP JUMPDEST JUMPDEST DUP2 MLOAD PUSH3 0x320 DUP5 DUP3 PUSH1 0x20 DUP7 ADD PUSH3 0x278 JUMP JUMPDEST SWAP2 POP POP SWAP3 SWAP2 POP POP JUMP JUMPDEST PUSH1 0x0 PUSH1 0x20 DUP3 DUP5 SUB SLT ISZERO PUSH3 0x342 JUMPI PUSH3 0x341 PUSH3 0x51C JUMP JUMPDEST JUMPDEST PUSH1 0x0 DUP3 ADD MLOAD PUSH8 0xFFFFFFFFFFFFFFFF DUP2 GT ISZERO PUSH3 0x363 JUMPI PUSH3 0x362 PUSH3 0x517 JUMP JUMPDEST JUMPDEST PUSH3 0x371 DUP5 DUP3 DUP6 ADD PUSH3 0x2C3 JUMP JUMPDEST SWAP2 POP POP SWAP3 SWAP2 POP POP JUMP JUMPDEST PUSH1 0x0 PUSH3 0x386 PUSH3 0x399 JUMP JUMPDEST SWAP1 POP PUSH3 0x394 DUP3 DUP3 PUSH3 0x474 JUMP JUMPDEST SWAP2 SWAP1 POP JUMP JUMPDEST PUSH1 0x0 PUSH1 0x40 MLOAD SWAP1 POP SWAP1 JUMP JUMPDEST PUSH1 0x0 PUSH8 0xFFFFFFFFFFFFFFFF DUP3 GT ISZERO PUSH3 0x3C1 JUMPI PUSH3 0x3C0 PUSH3 0x4D9 JUMP JUMPDEST JUMPDEST PUSH1 0x20 DUP3 MUL SWAP1 POP PUSH1 0x20 DUP2 ADD SWAP1 POP SWAP2 SWAP1 POP JUMP JUMPDEST PUSH1 0x0 PUSH8 0xFFFFFFFFFFFFFFFF DUP3 GT ISZERO PUSH3 0x3F0 JUMPI PUSH3 0x3EF PUSH3 0x4D9 JUMP JUMPDEST JUMPDEST PUSH3 0x3FB DUP3 PUSH3 0x521 JUMP JUMPDEST SWAP1 POP PUSH1 0x20 DUP2 ADD SWAP1 POP SWAP2 SWAP1 POP JUMP JUMPDEST PUSH1 0x0 JUMPDEST DUP4 DUP2 LT ISZERO PUSH3 0x428 JUMPI DUP1 DUP3 ADD MLOAD DUP2 DUP5 ADD MSTORE PUSH1 0x20 DUP2 ADD SWAP1 POP PUSH3 0x40B JUMP JUMPDEST DUP4 DUP2 GT ISZERO PUSH3 0x438 JUMPI PUSH1 0x0 DUP5 DUP5 ADD MSTORE JUMPDEST POP POP POP POP JUMP JUMPDEST PUSH1 0x0 PUSH1 0x2 DUP3 DIV SWAP1 POP PUSH1 0x1 DUP3 AND DUP1 PUSH3 0x457 JUMPI PUSH1 0x7F DUP3 AND SWAP2 POP JUMPDEST PUSH1 0x20 DUP3 LT DUP2 EQ ISZERO PUSH3 0x46E JUMPI PUSH3 0x46D PUSH3 0x4AA JUMP JUMPDEST JUMPDEST POP SWAP2 SWAP1 POP JUMP JUMPDEST PUSH3 0x47F DUP3 PUSH3 0x521 JUMP JUMPDEST DUP2 ADD DUP2 DUP2 LT PUSH8 0xFFFFFFFFFFFFFFFF DUP3 GT OR ISZERO PUSH3 0x4A1 JUMPI PUSH3 0x4A0 PUSH3 0x4D9 JUMP JUMPDEST JUMPDEST DUP1 PUSH1 0x40 MSTORE POP POP POP JUMP JUMPDEST PUSH32 0x4E487B7100000000000000000000000000000000000000000000000000000000 PUSH1 0x0 MSTORE PUSH1 0x22 PUSH1 0x4 MSTORE PUSH1 0x24 PUSH1 0x0 REVERT JUMPDEST PUSH32 0x4E487B7100000000000000000000000000000000000000000000000000000000 PUSH1 0x0 MSTORE PUSH1 0x41 PUSH1 0x4 MSTORE PUSH1 0x24 PUSH1 0x0 REVERT JUMPDEST PUSH1 0x0 DUP1 REVERT JUMPDEST PUSH1 0x0 DUP1 REVERT JUMPDEST PUSH1 0x0 DUP1 REVERT JUMPDEST PUSH1 0x0 DUP1 REVERT JUMPDEST PUSH1 0x0 DUP1 REVERT JUMPDEST PUSH1 0x0 PUSH1 0x1F NOT PUSH1 0x1F DUP4 ADD AND SWAP1 POP SWAP2 SWAP1 POP JUMP JUMPDEST PUSH2 0x8E7 DUP1 PUSH3 0x542 PUSH1 0x0 CODECOPY PUSH1 0x0 RETURN INVALID PUSH1 0x80 PUSH1 0x40 MSTORE CALLVALUE DUP1 ISZERO PUSH2 0x10 JUMPI PUSH1 0x0 DUP1 REVERT JUMPDEST POP PUSH1 0x4 CALLDATASIZE LT PUSH2 0x57 JUMPI PUSH1 0x0 CALLDATALOAD PUSH1 0xE0 SHR DUP1 PUSH4 0x4A3BF377 EQ PUSH2 0x5C JUMPI DUP1 PUSH4 0x538C91B2 EQ PUSH2 0x8C JUMPI DUP1 PUSH4 0x8D4B44D9 EQ PUSH2 0xBC JUMPI DUP1 PUSH4 0xB13C744B EQ PUSH2 0xEC JUMPI DUP1 PUSH4 0xE89927EF EQ PUSH2 0x11C JUMPI JUMPDEST PUSH1 0x0 DUP1 REVERT JUMPDEST PUSH2 0x76 PUSH1 0x4 DUP1 CALLDATASIZE SUB DUP2 ADD SWAP1 PUSH2 0x71 SWAP2 SWAP1 PUSH2 0x3CA JUMP JUMPDEST PUSH2 0x138 JUMP JUMPDEST PUSH1 0x40 MLOAD PUSH2 0x83 SWAP2 SWAP1 PUSH2 0x5B2 JUMP JUMPDEST PUSH1 0x40 MLOAD DUP1 SWAP2 SUB SWAP1 RETURN JUMPDEST PUSH2 0xA6 PUSH1 0x4 DUP1 CALLDATASIZE SUB DUP2 ADD SWAP1 PUSH2 0xA1 SWAP2 SWAP1 PUSH2 0x3CA JUMP JUMPDEST PUSH2 0x172 JUMP JUMPDEST PUSH1 0x40 MLOAD PUSH2 0xB3 SWAP2 SWAP1 PUSH2 0x575 JUMP JUMPDEST PUSH1 0x40 MLOAD DUP1 SWAP2 SUB SWAP1 RETURN JUMPDEST PUSH2 0xD6 PUSH1 0x4 DUP1 CALLDATASIZE SUB DUP2 ADD SWAP1 PUSH2 0xD1 SWAP2 SWAP1 PUSH2 0x3CA JUMP JUMPDEST PUSH2 0x220 JUMP JUMPDEST PUSH1 0x40 MLOAD PUSH2 0xE3 SWAP2 SWAP1 PUSH2 0x5B2 JUMP JUMPDEST PUSH1 0x40 MLOAD DUP1 SWAP2 SUB SWAP1 RETURN JUMPDEST PUSH2 0x106 PUSH1 0x4 DUP1 CALLDATASIZE SUB DUP2 ADD SWAP1 PUSH2 0x101 SWAP2 SWAP1 PUSH2 0x413 JUMP JUMPDEST PUSH2 0x24E JUMP JUMPDEST PUSH1 0x40 MLOAD PUSH2 0x113 SWAP2 SWAP1 PUSH2 0x590 JUMP JUMPDEST PUSH1 0x40 MLOAD DUP1 SWAP2 SUB SWAP1 RETURN JUMPDEST PUSH2 0x136 PUSH1 0x4 DUP1 CALLDATASIZE SUB DUP2 ADD SWAP1 PUSH2 0x131 SWAP2 SWAP1 PUSH2 0x3CA JUMP JUMPDEST PUSH2 0x2FA JUMP JUMPDEST STOP JUMPDEST PUSH1 0x0 PUSH2 0x143 DUP3 PUSH2 0x172 JUMP JUMPDEST PUSH2 0x14C JUMPI PUSH1 0x0 DUP1 REVERT JUMPDEST PUSH1 0x0 DUP3 PUSH1 0x40 MLOAD PUSH2 0x15C SWAP2 SWAP1 PUSH2 0x547 JUMP JUMPDEST SWAP1 DUP2 MSTORE PUSH1 0x20 ADD PUSH1 0x40 MLOAD DUP1 SWAP2 SUB SWAP1 KECCAK256 SLOAD SWAP1 POP SWAP2 SWAP1 POP JUMP JUMPDEST PUSH1 0x0 DUP1 PUSH1 0x0 SWAP1 POP JUMPDEST PUSH1 0x1 DUP1 SLOAD SWAP1 POP DUP2 LT ISZERO PUSH2 0x215 JUMPI DUP3 PUSH1 0x40 MLOAD PUSH1 0x20 ADD PUSH2 0x198 SWAP2 SWAP1 PUSH2 0x547 JUMP JUMPDEST PUSH1 0x40 MLOAD PUSH1 0x20 DUP2 DUP4 SUB SUB DUP2 MSTORE SWAP1 PUSH1 0x40 MSTORE DUP1 MLOAD SWAP1 PUSH1 0x20 ADD KECCAK256 PUSH1 0x1 DUP3 DUP2 SLOAD DUP2 LT PUSH2 0x1C2 JUMPI PUSH2 0x1C1 PUSH2 0x817 JUMP JUMPDEST JUMPDEST SWAP1 PUSH1 0x0 MSTORE PUSH1 0x20 PUSH1 0x0 KECCAK256 ADD PUSH1 0x40 MLOAD PUSH1 0x20 ADD PUSH2 0x1DC SWAP2 SWAP1 PUSH2 0x55E JUMP JUMPDEST PUSH1 0x40 MLOAD PUSH1 0x20 DUP2 DUP4 SUB SUB DUP2 MSTORE SWAP1 PUSH1 0x40 MSTORE DUP1 MLOAD SWAP1 PUSH1 0x20 ADD KECCAK256 EQ ISZERO PUSH2 0x202 JUMPI PUSH1 0x1 SWAP2 POP POP PUSH2 0x21B JUMP JUMPDEST DUP1 DUP1 PUSH2 0x20D SWAP1 PUSH2 0x770 JUMP JUMPDEST SWAP2 POP POP PUSH2 0x17A JUMP JUMPDEST POP PUSH1 0x0 SWAP1 POP JUMPDEST SWAP2 SWAP1 POP JUMP JUMPDEST PUSH1 0x0 DUP2 DUP1 MLOAD PUSH1 0x20 DUP2 ADD DUP3 ADD DUP1 MLOAD DUP5 DUP3 MSTORE PUSH1 0x20 DUP4 ADD PUSH1 0x20 DUP6 ADD KECCAK256 DUP2 DUP4 MSTORE DUP1 SWAP6 POP POP POP POP POP POP PUSH1 0x0 SWAP2 POP SWAP1 POP SLOAD DUP2 JUMP JUMPDEST PUSH1 0x1 DUP2 DUP2 SLOAD DUP2 LT PUSH2 0x25E JUMPI PUSH1 0x0 DUP1 REVERT JUMPDEST SWAP1 PUSH1 0x0 MSTORE PUSH1 0x20 PUSH1 0x0 KECCAK256 ADD PUSH1 0x0 SWAP2 POP SWAP1 POP DUP1 SLOAD PUSH2 0x279 SWAP1 PUSH2 0x70D JUMP JUMPDEST DUP1 PUSH1 0x1F ADD PUSH1 0x20 DUP1 SWAP2 DIV MUL PUSH1 0x20 ADD PUSH1 0x40 MLOAD SWAP1 DUP2 ADD PUSH1 0x40 MSTORE DUP1 SWAP3 SWAP2 SWAP1 DUP2 DUP2 MSTORE PUSH1 0x20 ADD DUP3 DUP1 SLOAD PUSH2 0x2A5 SWAP1 PUSH2 0x70D JUMP JUMPDEST DUP1 ISZERO PUSH2 0x2F2 JUMPI DUP1 PUSH1 0x1F LT PUSH2 0x2C7 JUMPI PUSH2 0x100 DUP1 DUP4 SLOAD DIV MUL DUP4 MSTORE SWAP2 PUSH1 0x20 ADD SWAP2 PUSH2 0x2F2 JUMP JUMPDEST DUP3 ADD SWAP2 SWAP1 PUSH1 0x0 MSTORE PUSH1 0x20 PUSH1 0x0 KECCAK256 SWAP1 JUMPDEST DUP2 SLOAD DUP2 MSTORE SWAP1 PUSH1 0x1 ADD SWAP1 PUSH1 0x20 ADD DUP1 DUP4 GT PUSH2 0x2D5 JUMPI DUP3 SWAP1 SUB PUSH1 0x1F AND DUP3 ADD SWAP2 JUMPDEST POP POP POP POP POP DUP2 JUMP JUMPDEST PUSH2 0x303 DUP2 PUSH2 0x172 JUMP JUMPDEST PUSH2 0x30C JUMPI PUSH1 0x0 DUP1 REVERT JUMPDEST PUSH1 0x1 PUSH1 0x0 DUP3 PUSH1 0x40 MLOAD PUSH2 0x31E SWAP2 SWAP1 PUSH2 0x547 JUMP JUMPDEST SWAP1 DUP2 MSTORE PUSH1 0x20 ADD PUSH1 0x40 MLOAD DUP1 SWAP2 SUB SWAP1 KECCAK256 PUSH1 0x0 DUP3 DUP3 SLOAD PUSH2 0x33B SWAP2 SWAP1 PUSH2 0x65F JUMP JUMPDEST SWAP3 POP POP DUP2 SWAP1 SSTORE POP POP JUMP JUMPDEST PUSH1 0x0 PUSH2 0x358 PUSH2 0x353 DUP5 PUSH2 0x5F2 JUMP JUMPDEST PUSH2 0x5CD JUMP JUMPDEST SWAP1 POP DUP3 DUP2 MSTORE PUSH1 0x20 DUP2 ADD DUP5 DUP5 DUP5 ADD GT ISZERO PUSH2 0x374 JUMPI PUSH2 0x373 PUSH2 0x87A JUMP JUMPDEST JUMPDEST PUSH2 0x37F DUP5 DUP3 DUP6 PUSH2 0x6CB JUMP JUMPDEST POP SWAP4 SWAP3 POP POP POP JUMP JUMPDEST PUSH1 0x0 DUP3 PUSH1 0x1F DUP4 ADD SLT PUSH2 0x39C JUMPI PUSH2 0x39B PUSH2 0x875 JUMP JUMPDEST JUMPDEST DUP2 CALLDATALOAD PUSH2 0x3AC DUP5 DUP3 PUSH1 0x20 DUP7 ADD PUSH2 0x345 JUMP JUMPDEST SWAP2 POP POP SWAP3 SWAP2 POP POP JUMP JUMPDEST PUSH1 0x0 DUP2 CALLDATALOAD SWAP1 POP PUSH2 0x3C4 DUP2 PUSH2 0x89A JUMP JUMPDEST SWAP3 SWAP2 POP POP JUMP JUMPDEST PUSH1 0x0 PUSH1 0x20 DUP3 DUP5 SUB SLT ISZERO PUSH2 0x3E0 JUMPI PUSH2 0x3DF PUSH2 0x884 JUMP JUMPDEST JUMPDEST PUSH1 0x0 DUP3 ADD CALLDATALOAD PUSH8 0xFFFFFFFFFFFFFFFF DUP2 GT ISZERO PUSH2 0x3FE JUMPI PUSH2 0x3FD PUSH2 0x87F JUMP JUMPDEST JUMPDEST PUSH2 0x40A DUP5 DUP3 DUP6 ADD PUSH2 0x387 JUMP JUMPDEST SWAP2 POP POP SWAP3 SWAP2 POP POP JUMP JUMPDEST PUSH1 0x0 PUSH1 0x20 DUP3 DUP5 SUB SLT ISZERO PUSH2 0x429 JUMPI PUSH2 0x428 PUSH2 0x884 JUMP JUMPDEST JUMPDEST PUSH1 0x0 PUSH2 0x437 DUP5 DUP3 DUP6 ADD PUSH2 0x3B5 JUMP JUMPDEST SWAP2 POP POP SWAP3 SWAP2 POP POP JUMP JUMPDEST PUSH2 0x449 DUP2 PUSH2 0x6B5 JUMP JUMPDEST DUP3 MSTORE POP POP JUMP JUMPDEST PUSH1 0x0 PUSH2 0x45A DUP3 PUSH2 0x638 JUMP JUMPDEST PUSH2 0x464 DUP2 DUP6 PUSH2 0x643 JUMP JUMPDEST SWAP4 POP PUSH2 0x474 DUP2 DUP6 PUSH1 0x20 DUP7 ADD PUSH2 0x6DA JUMP JUMPDEST PUSH2 0x47D DUP2 PUSH2 0x889 JUMP JUMPDEST DUP5 ADD SWAP2 POP POP SWAP3 SWAP2 POP POP JUMP JUMPDEST PUSH1 0x0 PUSH2 0x493 DUP3 PUSH2 0x638 JUMP JUMPDEST PUSH2 0x49D DUP2 DUP6 PUSH2 0x654 JUMP JUMPDEST SWAP4 POP PUSH2 0x4AD DUP2 DUP6 PUSH1 0x20 DUP7 ADD PUSH2 0x6DA JUMP JUMPDEST DUP1 DUP5 ADD SWAP2 POP POP SWAP3 SWAP2 POP POP JUMP JUMPDEST PUSH1 0x0 DUP2 SLOAD PUSH2 0x4C6 DUP2 PUSH2 0x70D JUMP JUMPDEST PUSH2 0x4D0 DUP2 DUP7 PUSH2 0x654 JUMP JUMPDEST SWAP5 POP PUSH1 0x1 DUP3 AND PUSH1 0x0 DUP2 EQ PUSH2 0x4EB JUMPI PUSH1 0x1 DUP2 EQ PUSH2 0x4FC JUMPI PUSH2 0x52F JUMP JUMPDEST PUSH1 0xFF NOT DUP4 AND DUP7 MSTORE DUP2 DUP7 ADD SWAP4 POP PUSH2 0x52F JUMP JUMPDEST PUSH2 0x505 DUP6 PUSH2 0x623 JUMP JUMPDEST PUSH1 0x0 JUMPDEST DUP4 DUP2 LT ISZERO PUSH2 0x527 JUMPI DUP2 SLOAD DUP2 DUP10 ADD MSTORE PUSH1 0x1 DUP3 ADD SWAP2 POP PUSH1 0x20 DUP2 ADD SWAP1 POP PUSH2 0x508 JUMP JUMPDEST DUP4 DUP9 ADD SWAP6 POP POP POP JUMPDEST POP POP POP SWAP3 SWAP2 POP POP JUMP JUMPDEST PUSH2 0x541 DUP2 PUSH2 0x6C1 JUMP JUMPDEST DUP3 MSTORE POP POP JUMP JUMPDEST PUSH1 0x0 PUSH2 0x553 DUP3 DUP5 PUSH2 0x488 JUMP JUMPDEST SWAP2 POP DUP2 SWAP1 POP SWAP3 SWAP2 POP POP JUMP JUMPDEST PUSH1 0x0 PUSH2 0x56A DUP3 DUP5 PUSH2 0x4B9 JUMP JUMPDEST SWAP2 POP DUP2 SWAP1 POP SWAP3 SWAP2 POP POP JUMP JUMPDEST PUSH1 0x0 PUSH1 0x20 DUP3 ADD SWAP1 POP PUSH2 0x58A PUSH1 0x0 DUP4 ADD DUP5 PUSH2 0x440 JUMP JUMPDEST SWAP3 SWAP2 POP POP JUMP JUMPDEST PUSH1 0x0 PUSH1 0x20 DUP3 ADD SWAP1 POP DUP2 DUP2 SUB PUSH1 0x0 DUP4 ADD MSTORE PUSH2 0x5AA DUP2 DUP5 PUSH2 0x44F JUMP JUMPDEST SWAP1 POP SWAP3 SWAP2 POP POP JUMP JUMPDEST PUSH1 0x0 PUSH1 0x20 DUP3 ADD SWAP1 POP PUSH2 0x5C7 PUSH1 0x0 DUP4 ADD DUP5 PUSH2 0x538 JUMP JUMPDEST SWAP3 SWAP2 POP POP JUMP JUMPDEST PUSH1 0x0 PUSH2 0x5D7 PUSH2 0x5E8 JUMP JUMPDEST SWAP1 POP PUSH2 0x5E3 DUP3 DUP3 PUSH2 0x73F JUMP JUMPDEST SWAP2 SWAP1 POP JUMP JUMPDEST PUSH1 0x0 PUSH1 0x40 MLOAD SWAP1 POP SWAP1 JUMP JUMPDEST PUSH1 0x0 PUSH8 0xFFFFFFFFFFFFFFFF DUP3 GT ISZERO PUSH2 0x60D JUMPI PUSH2 0x60C PUSH2 0x846 JUMP JUMPDEST JUMPDEST PUSH2 0x616 DUP3 PUSH2 0x889 JUMP JUMPDEST SWAP1 POP PUSH1 0x20 DUP2 ADD SWAP1 POP SWAP2 SWAP1 POP JUMP JUMPDEST PUSH1 0x0 DUP2 SWAP1 POP DUP2 PUSH1 0x0 MSTORE PUSH1 0x20 PUSH1 0x0 KECCAK256 SWAP1 POP SWAP2 SWAP1 POP JUMP JUMPDEST PUSH1 0x0 DUP2 MLOAD SWAP1 POP SWAP2 SWAP1 POP JUMP JUMPDEST PUSH1 0x0 DUP3 DUP3 MSTORE PUSH1 0x20 DUP3 ADD SWAP1 POP SWAP3 SWAP2 POP POP JUMP JUMPDEST PUSH1 0x0 DUP2 SWAP1 POP SWAP3 SWAP2 POP POP JUMP JUMPDEST PUSH1 0x0 PUSH2 0x66A DUP3 PUSH2 0x6C1 JUMP JUMPDEST SWAP2 POP PUSH2 0x675 DUP4 PUSH2 0x6C1 JUMP JUMPDEST SWAP3 POP DUP3 PUSH32 0xFFFFFFFFFFFFFFFFFFFFFFFFFFFFFFFFFFFFFFFFFFFFFFFFFFFFFFFFFFFFFFFF SUB DUP3 GT ISZERO PUSH2 0x6AA JUMPI PUSH2 0x6A9 PUSH2 0x7B9 JUMP JUMPDEST JUMPDEST DUP3 DUP3 ADD SWAP1 POP SWAP3 SWAP2 POP POP JUMP JUMPDEST PUSH1 0x0 DUP2 ISZERO ISZERO SWAP1 POP SWAP2 SWAP1 POP JUMP JUMPDEST PUSH1 0x0 DUP2 SWAP1 POP SWAP2 SWAP1 POP JUMP JUMPDEST DUP3 DUP2 DUP4 CALLDATACOPY PUSH1 0x0 DUP4 DUP4 ADD MSTORE POP POP POP JUMP JUMPDEST PUSH1 0x0 JUMPDEST DUP4 DUP2 LT ISZERO PUSH2 0x6F8 JUMPI DUP1 DUP3 ADD MLOAD DUP2 DUP5 ADD MSTORE PUSH1 0x20 DUP2 ADD SWAP1 POP PUSH2 0x6DD JUMP JUMPDEST DUP4 DUP2 GT ISZERO PUSH2 0x707 JUMPI PUSH1 0x0 DUP5 DUP5 ADD MSTORE JUMPDEST POP POP POP POP JUMP JUMPDEST PUSH1 0x0 PUSH1 0x2 DUP3 DIV SWAP1 POP PUSH1 0x1 DUP3 AND DUP1 PUSH2 0x725 JUMPI PUSH1 0x7F DUP3 AND SWAP2 POP JUMPDEST PUSH1 0x20 DUP3 LT DUP2 EQ ISZERO PUSH2 0x739 JUMPI PUSH2 0x738 PUSH2 0x7E8 JUMP JUMPDEST JUMPDEST POP SWAP2 SWAP1 POP JUMP JUMPDEST PUSH2 0x748 DUP3 PUSH2 0x889 JUMP JUMPDEST DUP2 ADD DUP2 DUP2 LT PUSH8 0xFFFFFFFFFFFFFFFF DUP3 GT OR ISZERO PUSH2 0x767 JUMPI PUSH2 0x766 PUSH2 0x846 JUMP JUMPDEST JUMPDEST DUP1 PUSH1 0x40 MSTORE POP POP POP JUMP JUMPDEST PUSH1 0x0 PUSH2 0x77B DUP3 PUSH2 0x6C1 JUMP JUMPDEST SWAP2 POP PUSH32 0xFFFFFFFFFFFFFFFFFFFFFFFFFFFFFFFFFFFFFFFFFFFFFFFFFFFFFFFFFFFFFFFF DUP3 EQ ISZERO PUSH2 0x7AE JUMPI PUSH2 0x7AD PUSH2 0x7B9 JUMP JUMPDEST JUMPDEST PUSH1 0x1 DUP3 ADD SWAP1 POP SWAP2 SWAP1 POP JUMP JUMPDEST PUSH32 0x4E487B7100000000000000000000000000000000000000000000000000000000 PUSH1 0x0 MSTORE PUSH1 0x11 PUSH1 0x4 MSTORE PUSH1 0x24 PUSH1 0x0 REVERT JUMPDEST PUSH32 0x4E487B7100000000000000000000000000000000000000000000000000000000 PUSH1 0x0 MSTORE PUSH1 0x22 PUSH1 0x4 MSTORE PUSH1 0x24 PUSH1 0x0 REVERT JUMPDEST PUSH32 0x4E487B7100000000000000000000000000000000000000000000000000000000 PUSH1 0x0 MSTORE PUSH1 0x32 PUSH1 0x4 MSTORE PUSH1 0x24 PUSH1 0x0 REVERT JUMPDEST PUSH32 0x4E487B7100000000000000000000000000000000000000000000000000000000 PUSH1 0x0 MSTORE PUSH1 0x41 PUSH1 0x4 MSTORE PUSH1 0x24 PUSH1 0x0 REVERT JUMPDEST PUSH1 0x0 DUP1 REVERT JUMPDEST PUSH1 0x0 DUP1 REVERT JUMPDEST PUSH1 0x0 DUP1 REVERT JUMPDEST PUSH1 0x0 DUP1 REVERT JUMPDEST PUSH1 0x0 PUSH1 0x1F NOT PUSH1 0x1F DUP4 ADD AND SWAP1 POP SWAP2 SWAP1 POP JUMP JUMPDEST PUSH2 0x8A3 DUP2 PUSH2 0x6C1 JUMP JUMPDEST DUP2 EQ PUSH2 0x8AE JUMPI PUSH1 0x0 DUP1 REVERT JUMPDEST POP JUMP INVALID LOG2 PUSH5 0x6970667358 0x22 SLT KECCAK256 0xEE 0xBC CALLDATALOAD 0xED LOG0 0xFC DUP9 DIV BYTE SWAP8 0x4A 0xA7 CODESIZE 0xE9 DUP15 LOG0 REVERT 0xC3 PUSH32 0x8D755C0EF4BE3F9AF26097485A64736F6C634300080700330000000000000000 "
				},
				"gasEstimates": {
					"creation": {
						"codeDepositCost": "455800",
						"executionCost": "infinite",
						"totalCost": "infinite"
					},
					"external": {
						"candidateList(uint256)": "infinite",
						"totalVotesFor(string)": "infinite",
						"validCandidate(string)": "infinite",
						"voteForCandidate(string)": "infinite",
						"votesReceived(string)": "infinite"
					}
				},
				"methodIdentifiers": {
					"candidateList(uint256)": "b13c744b",
					"totalVotesFor(string)": "4a3bf377",
					"validCandidate(string)": "538c91b2",
					"voteForCandidate(string)": "e89927ef",
					"votesReceived(string)": "8d4b44d9"
				}
			},
			"storageLayout": {
				"storage": [
					{
						"astId": 5,
						"contract": "contracts/Voting.sol:Voting",
						"label": "votesReceived",
						"offset": 0,
						"slot": "0",
						"type": "t_mapping(t_string_memory_ptr,t_uint256)"
					},
					{
						"astId": 8,
						"contract": "contracts/Voting.sol:Voting",
						"label": "candidateList",
						"offset": 0,
						"slot": "1",
						"type": "t_array(t_string_storage)dyn_storage"
					}
				],
				"types": {
					"t_array(t_string_storage)dyn_storage": {
						"base": "t_string_storage",
						"encoding": "dynamic_array",
						"label": "string[]",
						"numberOfBytes": "32"
					},
					"t_mapping(t_string_memory_ptr,t_uint256)": {
						"encoding": "mapping",
						"key": "t_string_memory_ptr",
						"label": "mapping(string => uint256)",
						"numberOfBytes": "32",
						"value": "t_uint256"
					},
					"t_string_memory_ptr": {
						"encoding": "bytes",
						"label": "string",
						"numberOfBytes": "32"
					},
					"t_string_storage": {
						"encoding": "bytes",
						"label": "string",
						"numberOfBytes": "32"
					},
					"t_uint256": {
						"encoding": "inplace",
						"label": "uint256",
						"numberOfBytes": "32"
					}
				}
			},
			"userdoc": {
				"kind": "user",
				"methods": {},
				"version": 1
			}
		}
	}
}